:0400000007EF00F016
:100008004F8294ED07F0CAEF0AF0000E0001816FED
:10001800000E806F000E0001836F000E826FAE0E1F
:10002800136E000E146E3DEC08F020EEB2F0DECF39
:1000380034F0DDCF35F0040E366E353435323432D7
:10004800362EFBD70F0E34140001846F0001856B28
:100058000F0E0001B2150001866F0001876B20EEBC
:10006800B0F0DECF34F0DDCF35F0040E366E353427
:1000780035323432362EFBD70F0E34140001886F18
:100088000001896B0F0E0001B01500018A6F000195
:100098008B6BAEC034F0AFC035F0040E366E35341D
:1000A80035323432362EFBD70F0E341400018C6FE4
:1000B80000018D6B0F0E0001AE1500018E6F00015F
:1000C8008F6B88C010F089C011F0000E136E0A0EF5
:1000D800126E9CEC0BF000018A5110240001906F05
:1000E80000018B5111200001916F84C010F085C070
:1000F80011F0000E136E0A0E126E9CEC0BF000014C
:10010800865110240001926F0001875111200001CF
:10011800936F8CC010F08DC011F0000E136E0A0E94
:10012800126E9CEC0BF010C034F011C035F092C088
:1001380010F093C011F00E0E136E100E126E9CECA0
:100148000BF0105034261150352290C010F091C099
:1001580011F0000E136E3C0E126E9CEC0BF010505A
:1001680034261150352200018E51342400019C6F31
:1001780000018F51352000019D6F800E29EC0CF095
:100188008C0E1C6EFF0E1D6ED0EC02F0C00E29EC1A
:100198000CF0370E1C6EFF0E1D6ED0EC02F08A803C
:1001A800040E356ECF0E346E020EE82EFED7342EB6
:1001B800FCD7352EFAD78B8C000E116E040E106EFC
:1001C80034EC07F0000E116E010E106EAAEC0AF066
:1001D800000E116E020E106E70EC06F0000E116E1D
:1001E800000E106E27EC0BF0000E116E030E106E51
:1001F80008EC0BF0F29ED4EC05F09CC018F09DC002
:1002080019F02FEC05F018C0A0F019C0A1F0000EED
:100218000001A56F010EA46F000E0001A76F010E6B
:10022800A66F000E0001A96F010EA86F000E000155
:10023800AB6F010EAA6F000E0001AD6F000EAC6F20
:1002480084D1D4EC05F0800E29EC0CF0140E1C6E51
:10025800FF0E1D6EACC01EF0ADC01FF0D0EC02F05A
:10026800CCEC0BF010501110D8A405D0000E0001F2
:10027800A56F000EA46FF0EC0BF010501110D8A46D
:1002880005D0000E0001A76F000EA66FE4EC0BF07E
:1002980010501110D8A405D0000E0001A96F000E4F
:1002A800A86FFCEC0BF010501110D8A405D0000E6C
:1002B8000001AB6F000EAA6F0001A4510001A51147
:1002C800D8A422D0000E0001AD6F000EAC6F000163
:1002D800A8050001A911D8A417D0060E356E130E73
:1002E800346EAE0EE82EFED7342EFCD7352EFAD754
:1002F80046EC0BF0000E0001816F010E806F000EBE
:100308000001A56F010EA46F0001A6510001A711FD
:10031800D8A422D0000E0001AD6F000EAC6F000112
:10032800AA050001AB11D8A417D0060E356E130E1E
:10033800346EAE0EE82EFED7342EFCD7352EFAD703
:100348005EEC0BF0000E0001836F010E826F000E51
:100358000001A76F010EA66F0001A4050001A511F9
:10036800D8A409D00001A6050001A711D8A403D07C
:100378000001AC4BAD2B0001A8510001A911D8A474
:1003880058D00B0E356E260E346E5E0EE82EFED754
:10039800342EFCD7352EFAD7000E0001AD6F000EB3
:1003A800AC6FD8EC0BF010041110D8A405D0000ED7
:1003B8000001A36F000E04D0000E0001A36F010E10
:1003C800A26F0001A2510001A311D8A414D0000EFD
:1003D800116E020E106E34EC07F0000E116E020E54
:1003E800106E70EC06F0000E0001816F000E806F39
:1003F800494A4A2A19D00001A2050001A311D8A42C
:1004080013D0000E116E020E106ED2EC06F0000E24
:10041800116E020E106E70EC06F0000E0001816F76
:10042800000E806F474A482A000E0001A96F010E8E
:10043800A86F0001AA510001AB11D8A44ED0000E3C
:100448000001AD6F000EAC6F0B0E356E260E346ECC
:100458005E0EE82EFED7342EFCD7352EFAD7C1EC27
:1004680008F010C09EF011C09FF0000E116E040E2F
:10047800106E34EC07F000019E5100019F11D8B4B2
:100488000ED0000E116E030E106E34EC07F0000E45
:100498000001836F000E826F434A442A13D0000183
:1004A8009E5100019F11D8A40DD0000E116E030EAD
:1004B800106ED2EC06F0000E0001836F000E826F02
:1004C800414A422A000E116E030E106E08EC0BF022
:1004D800000E0001AB6F010EAA6F9CC018F09DC002
:1004E80019F02FEC05F018C0A0F019C0A1F0000118
:1004F800ADBF0FD00001AD5105E1330E0001AC5D79
:10050800D8A007D0020E4B6E000E466E010E456E47
:1005180012000001A1BF0ED00001A15105E1B50EE6
:100528000001A05DD8A006D0020E4B6E000E466EEC
:10053800000EEDD7040E356ECF0E346E020EE82E87
:10054800FED7342EFCD7352EFAD70001A1BF08D02C
:100558000001A15107E1B40E0001A05DD8B002D09E
:1005680081B06FD68B9C43C094F044C095F041C0D5
:1005780096F042C097F047C098F048C099F049C03B
:100588009AF04AC09BF0940E136E000E146ED2ECD3
:1005980009F0020E4B6E12001E0E2B6E000E2C6E12
:1005A80074D1250E3318D8B404D0335023EC0CF092
:1005B8006CD1000E326E000E316E000E306E03D01C
:1005C80030841C4A1D2A1CC0F6FF1DC0F7FF080016
:1005D800F550300AD8B4F4D71CC0F6FF1DC0F7FF99
:1005E8000800F550AFEC0BF0D8A035D0000E326EF5
:1005F800000E316E31C010F032C011F0000E136ED3
:100608000A0E126E9CEC0BF010C031F011C032F0E3
:10061800D00E266EFF0E276E1CC0F6FF1DC0F7FF1A
:100628000800F550286E296A2650282627502922C6
:1006380028503126295032221C4A1D2A1CC0F6FF98
:100648001DC0F7FF0800F550AFEC0BF0D8A003D0A1
:10065800D1D7308E17D01CC0F6FF1DC0F7FF1C4A3B
:100668001D2A0800F5CF33F03350000AD8B4120021
:10067800640AD8B407D00D0AD8B404D0110AD8B483
:10068800E8D703D130BE15D02BC0D9FF2CC0DAFF74
:10069800DECF2EF0DDCF2FF0020E2B26000E2C22FF
:1006A8002FAE44D0030E30122E6C2F1ED8B02F2A36
:1006B8003DD02BC0D9FF2CC0DAFFDECF2EF0DDCF26
:1006C8002FF0020E2B26000E2C2230D0010E336E96
:1006D800050E3318D8B432D03350020DD60EF32499
:1006E800F66EFE0EF420F76E0900F5502E5C090038
:1006F800F5502F58D8A022D0332AEAD7010E336EEE
:10070800040E3318D8B41AD03350020DE00EF32477
:10071800F66EFE0EF420F76E0900F5502E5C090007
:10072800F5502F58D8A00AD0332AEAD73050800B7A
:10073800000AD8B4CBD7800AD8B4E0D731503210E9
:10074800D8B409D030C026F0030E2616D8B403D08A
:100758003106D8A03206800E33BE7F0E266E315089
:10076800335C3250800A2658D8B007D03350315EF7
:10077800000E33BEFF0E325A04D0000E326E000E49
:10078800316E30A414D030C026F0030E2616D8B42B
:1007980003D02D0E23EC0CF031503210D8B41ED0FB
:1007A800300E23EC0CF03106D8A03206F5D73150C4
:1007B8003210D8B40AD0200E23EC0CF03106D8A0A1
:1007C800320631503210D8A4F6D730C026F0030EC6
:1007D8002616D8B403D02D0E23EC0CF033C02DF020
:1007E80050D02D50020DD60EF324F66EFE0EF420D6
:1007F800F76E0900F5CF12F00A00F5CF13F02EC0FE
:1008080010F02FC011F082EC09F010C017F011C0E1
:1008180018F0000E1A6E0A0E196E89EC0AF01750BD
:10082800300F336E2BD02EC010F02FC011F02D508A
:10083800020DE00EF324F66EFE0EF420F76E0900AA
:10084800F5CF12F00A00F5CF13F082EC09F0105042
:100858000F0B2A6E2A50010D260EF324F66EFF0E9A
:10086800F420F76E0800F5CF33F008D03050800B35
:10087800000AD8B4B6D7800AD8B4D5D7335023ECF9
:100888000CF02D062D28D8A4F1D71CC0F6FF1DC0EA
:10089800F7FF1C4A1D2A0800F5CF33F03350D8B4AF
:1008A80012007FD6F00ED36E000E926EF20E936E8B
:1008B800000E946E000E956E000E966E000E896EF8
:1008C800000E8A6E000E8B6E000E8C6E000E8D6E02
:1008D800000EC26E000EC16E66EC0AF0100E1D6EA0
:1008E800270E1E6E000E1F6E000E206E2AEC09F0F9
:1008F800F29E550E896E550E8A6E550E8B6E8C8043
:100908008C928D808D92000E366E000E356E000E24
:100918003F6E000E3E6E95D038EC0CF0000E126E55
:10092800D00E116E2FEC0CF0000E126E000E116E30
:100938002FEC0CF034EC0CF038EC0CF0000E126ECE
:10094800D10E116E2FEC0CF0000E406E050E4064B7
:1009580001D00ED04050010D370EF324D96E000E91
:10096800F420DA6E010E76EC0BF0DF6E402AEED73B
:10097800000E76EC0BF03D6E34EC0CF0800E29EC9A
:100988000CF0CF0E1C6EFF0E1D6E3DC01EF01F6AD0
:100998003CC020F0216A3BC022F0236AD0EC02F070
:1009A800DE0E1C6EFF0E1D6E39C01EF01F6A38C0A9
:1009B80020F0216A37C022F0236AD0EC02F0C00E82
:1009C80029EC0CF0390E1C6EFF0E1D6ED0EC02F0F7
:1009D800800E29EC0CF0C00E29EC0CF0891E8A1E42
:1009E8008B1E8CB003D0346A342A01D0346A8C5000
:1009F8003418FE0B34188C6E8CB203D0346A342A47
:100A080001D0346A34468C503418FD0B34188C6E7F
:100A18008DB003D0346A342A01D0346A8D5034182A
:100A2800FE0B34188D6E8DB203D0346A342A01D08F
:100A3800346A34468D503418FD0B34188D6E3E4A96
:100A48003F2A3FBE69D73F5005E10A0E3E5CD8B049
:100A5800120062D71200BC0E136E000E146E3DEC2D
:100A680008F020EEC0F0DECF1AF0DDCF1BF0040E48
:100A78001C6E1B341B321A321C2EFBD70F0E1A1495
:100A88001D6E1E6A0F0E0001C0151F6E206A20EE33
:100A9800BEF0DECF1AF0DDCF1BF0040E1C6E1B3447
:100AA8001B321A321C2EFBD70F0E1A14216E226A23
:100AB8000F0E0001BE15236E246ABCC01AF0BDC01B
:100AC8001BF0040E1C6E1B341B321A321C2EFBD773
:100AD8000F0E1A14256E266A0F0E0001BC15276E1C
:100AE800286A21C010F022C011F0000E136E0A0E01
:100AF800126E9CEC0BF0235010242B6E2450112006
:100B08002C6E1DC010F01EC011F0000E136E0A0EE0
:100B1800126E9CEC0BF01F5010242D6E20501120EB
:100B28002E6E25C010F026C011F0000E136E0A0EAE
:100B3800126E9CEC0BF010C01AF011C01BF02DC007
:100B480010F02EC011F00E0E136E100E126E9CECEB
:100B58000BF010501A2611501B222BC010F02CC07D
:100B680011F0000E136E3C0E126E9CEC0BF0105040
:100B78001A2611501B2227501A24296E28501B2090
:100B88002A6E18C01AF019C01BF01A1E1B1E1A4A2A
:100B98001B2A29501A24186E2A501B20196E12007D
:100BA800800E29EC0CF083D0BF0E1C6EFF0E1D6E5C
:100BB800C8C01EF0C9C01FF0C6C020F0C7C021F0D1
:100BC800C4C022F0C5C023F0D0EC02F0DE0E1C6ECB
:100BD800FF0E1D6EC0C01EF0C1C01FF0BEC020F0C9
:100BE800BFC021F0BCC022F0BDC023F0D0EC02F0A1
:100BF800C00E29EC0CF0AE0E1C6EFF0E1D6ED0EC74
:100C080002F063D0EF0E1C6EFE0E1D6E4CC01EF07F
:100C18001F6AD0EC02F0C00E29EC0CF09D0E1C6E81
:100C2800FF0E1D6ED0EC02F050D07B0E1C6EFF0E36
:100C38001D6ED0EC02F0C00E29EC0CF0020E1C6EFA
:100C4800FF0E1D6E41C01EF042C01FF043C020F0D1
:100C580044C021F049C022F04AC023F047C024F024
:100C680048C025F0D0EC02F030D045044610D8A496
:100C780007D0590E1C6EFF0E1D6ED0EC02F006D088
:100C88006A0E1C6EFF0E1D6ED0EC02F0C00E29EC31
:100C98000CF0480E1C6EFF0E1D6ED0EC02F015D045
:100CA800F90E1C6EFF0E1D6ED0EC02F00ED04B50EC
:100CB800000AD8B479D7010AD8B4B7D7030AD8B488
:100CC800D4D7010AD8B49ED7EBD7800E29EC0CF004
:100CD800C00E29EC0CF01200000E156E000E146EFA
:100CE80056D0898820D0898A1ED08D801CD08D82CC
:100CF8001AD08A8418D010C012F011C013F0135003
:100D0800000AD8A410D01250000AD8B4EAD7010AB1
:100D1800D8B4E9D7030AD8B4E8D7010AD8B4E7D7D2
:100D2800070AD8B4E6D7050E126EDE0EE82EFED7F7
:100D3800122EFCD70AD0899820D0899A1ED08D907F
:100D48001CD08D921AD08A9418D010C012F011C0FD
:100D580013F01350000AD8A410D01250000AD8B4C7
:100D6800EAD7010AD8B4E9D7030AD8B4E8D7010A00
:100D7800D8B4E7D7070AD8B4E6D73D0E126E0F0EDF
:100D8800E82EFED7122EFCD700F0144A152A4D5033
:100D9800145C4E501558D8B01200ADD7000E156E21
:100DA800000E146E56D0898820D0898A1ED08D8076
:100DB8001CD08D821AD08A8418D010C012F011C0AD
:100DC80013F01350000AD8A410D01250000AD8B457
:100DD800EAD7010AD8B4E9D7030AD8B4E8D7010A90
:100DE800D8B4E7D7070AD8B4E6D7080E126ECA0EE9
:100DF800E82EFED7122EFCD70AD0899820D0899ADF
:100E08001ED08D901CD08D921AD08A9418D010C004
:100E180012F011C013F01350000AD8A410D01250C9
:100E2800000AD8B4EAD7010AD8B4E9D7030AD8B473
:100E3800E8D7010AD8B4E7D7070AD8B4E6D73A0EF4
:100E4800126E230EE82EFED7122EFCD700F0144A9D
:100E5800152A4D50145C4E501558D8B01200ADD715
:100E6800000E156E000E146E54D0898820D0898A21
:100E78001ED08D801CD08D821AD08A8418D010C0C4
:100E880012F011C013F01350000AD8A410D0125059
:100E9800000AD8B4EAD7010AD8B4E9D7030AD8B403
:100EA800E8D7010AD8B4E7D7070AD8B4E6D7D60EE8
:100EB80000D000D0E82EFCD700D00AD0899820D0E6
:100EC800899A1ED08D901CD08D921AD08A9418D0F1
:100ED80010C012F011C013F01350000AD8A410D09B
:100EE8001250000AD8B4EAD7010AD8B4E9D7030ADD
:100EF800D8B4E8D7010AD8B4E7D7070AD8B4E6D7F0
:100F08003F0E126EFC0EE82EFED7122EFCD7144AA6
:100F1800152A4D50145C4E501558D8B01200AFD752
:100F28000600FACF01F0FBCF02F0E9CF03F0EACFD9
:100F380004F0E1CF05F0E2CF06F0D9CF07F0DACF21
:100F480008F0F3CF09F0F4CF0AF0F6CF0BF0F7CFA3
:100F58000CF0F8CF0DF0F5CF0EF0F0A01CD08138D2
:100F68000F0B0F0B0F6E0D0E0F18D8A4F8D7000E2D
:100F7800896E000E8A6E000E8B6E000E8C6E000E4F
:100F88008D6E8B9C8A90020E4B6E000E466E000E84
:100F9800456EF29EF0900EC0F5FF0DC0F8FF0CC034
:100FA800F7FF0BC0F6FF0AC0F4FF09C0F3FF08C043
:100FB800DAFF07C0D9FF06C0E2FF05C0E1FF04C0A1
:100FC800EAFF03C0E9FF02C0FBFF01C0FAFF4F922E
:100FD800110056EC04F0F00ED36E0F0E926EF20E66
:100FE800936E1B0E946E000E956E000E966E000E9C
:100FF800896E000E8A6E000E8B6E000E8C6E000ECF
:101008008D6E000EC26E0F0EC16E070EB46E66ECCA
:101018000AF0BEEC0BF0100E1D6E270E1E6E000EB1
:101028001F6E000E206E2AEC09F0F086F29E000E6C
:101038004B6E0ED01EEC0AF00BD009EC00F008D075
:10104800E9EC0AF005D0ABEC09F002D0F8EC09F0B5
:101058004B50000AD8B4EED7010AD8B4EED7030A29
:10106800D8B4EED7010AD8B4EED7060AD8B4EED76A
:10107800EFD738EC0CF0000E126ED00E116E2FEC7C
:101088000CF0000E126E000E116E2FEC0CF034EC0A
:101098000CF038EC0CF0000E126ED10E116E2FEC25
:1010A8000CF0000E176E050E176401D013D0010E58
:1010B80076EC0BF0156E166A1750020DF3501324D8
:1010C800D96EF4501420DA6E15C0DEFF16C0DDFFAD
:1010D800172AE9D7000E76EC0BF0156E166A20EE8B
:1010E8000CF01350D9261450DA2215C0DEFF16C0B2
:1010F800DDFF34EC0CF01200000E186E000E196EB5
:10110800000E1A6E000E1B6E1450151016101710D4
:10111800D8B42AD0010E1C6E06D0D89014361536D5
:10112800163617361C2A17AEF8D7D890183619363F
:101138001A361B361450105C155011581650125898
:1011480017501358D8A009D01450105E1550115AD2
:101158001650125A1750135A1880D8901732163250
:10116800153214321C2EE1D718C010F019C011F036
:101178001AC012F01BC013F0120017681868000E8E
:10118800166E000E156E1DD08A84060E126EA50E00
:10119800E82EFED7122EFCD700F08A943C0E126E71
:1011A800480EE82EFED7122EFCD782A204D0000EDD
:1011B800186E010E03D0000E186E000E176E154A39
:1011C800162A320E4D24126E000E4E20136E125047
:1011D800155C1650800A146E1350800A1458D8A053
:1011E800D3D717C010F018C011F012001CEC0CF087
:1011F800186E1250050DF35000081824186E000ED2
:101208001A6E000E196E1ABE06D01A501EE1050E8F
:10121800195CD8B0120018501924106E000E1A204C
:10122800116E08EC0CF0166E176AD8901934D96E46
:101238001A34DA6E1450D9261550DA2216C0DEFF99
:1012480017C0DDFF194A1A2ADED71200000EC76E32
:10125800280EC66E000EC56E800E106E960E116EAC
:10126800980E126E000E136E1DC021F01EC022F0E3
:101278001FC023F020C024F0020ED8902136223659
:1012880023362436E82EF9D721C014F022C015F0F1
:1012980023C016F024C017F080EC08F01004C86EC4
:1012A800948694881200116E1150F00B106E8C50B9
:1012B8000F0B8C6E10508C108C6E8C96140EE82EC2
:1012C800FED700D08C86140EE82EFED700D0113839
:1012D800F00B116E1150F00B106E8C500F0B8C6EC2
:1012E80010508C108C6E8C96140EE82EFED700D001
:1012F8008C86140EE82EFED700D01200000E166E53
:10130800000E156E12501310D8B41CD0010E146EB6
:1013180004D0D89012361336142A13AEFAD7D890C0
:10132800153616361250105C13501158D8A005D037
:101338001250105E1350115A1580D8901332123281
:10134800142EEDD715C010F016C011F01200D4EC11
:1013580005F0000E356E000E346E42EC0AF010C037
:1013680036F011C037F036043710D8A40FD0344AFD
:10137800352A34C012F035C013F04C0E146E000E2E
:10138800156EFAEC08F0D4EC05F012000D0E3618C4
:101398003710D8A4E2D7000E4B6E12001CEC0CF0EC
:1013A800050F156E000E116E000E106E15C012F0AE
:1013B80089EC0BF0000E176E000E166E17BE06D0E5
:1013C800175011E1050E165CD8B0120015501624FE
:1013D800106E000E1720116EFF0E126E89EC0BF0C6
:1013E800164A172AEBD712008A80040E356ECF0EE4
:1013F800346E020EE82EFED7342EFCD7352EFAD7DF
:10140800800E29EC0CF0ED0E1C6EFF0E1D6ED0EC5C
:1014180002F0C00E29EC0CF042EC0AF010C036F0D5
:1014280011C037F00D0E36183710D8A41200000E70
:101438004B6E12008A908B9CBC0E136E000E146EBD
:101448003DEC08F0D4EC05F042EC0AF010C034F0A2
:1014580011C035F034503510D8A403D0010E4B6EAE
:10146800120034043510D8A402D0030EF8D7030EA6
:1014780034183510D8A4E0D7050EF1D7000E146E35
:10148800000E136E14BE06D0145019E1C80E135C7A
:10149800D8B015D081A20CD081380F0B0F0B126E6B
:1014A80081B2FED700F000F012C010F0116A1200ED
:1014B800134A142A14BEEED7145001E1E7D7106876
:1014C80011681200310E136EB20EE82EFED7132EDD
:1014D800FCD700D0330E29EC0CF0320E29EC0CF0BE
:1014E800280E29EC0CF00F0E29EC0CF0060E29EC56
:1014F8000CF0010E29EC0CF0310E136EB20EE82E32
:10150800FED7132EFCD700D0120019501A10D8B4E9
:1015180018D0010E1B6E04D0D89019361A361B2A23
:101528001AAEFAD71950175C1A501858D8A004D018
:101538001950175E1A50185AD8901A3219321B2EA1
:10154800F1D717C017F018C018F01200000E146E6B
:10155800000E136E14D0898A060E126E660EE82EDF
:10156800FED7122EFCD700D0899A3C0E126E860E3A
:10157800E82EFED7122EFCD700F0134A142A4D503D
:10158800135C4E501458D8B01200E5D7780EF66E9A
:10159800180EF76E000EF86E0900F5CF4DF0090031
:1015A800F5CF4EF000EEAEF01C0EEE6AE806FDE157
:1015B80000EE41F00C0EEE6AE806FDE14F904F9206
:1015C800000EF86E0001EDEF07F0F29E0D0E356E7D
:1015D800AF0E346EB60EE82EFED7342EFCD7352E5D
:1015E800FAD700D0D4EC05F08A908B9C42EC0AF034
:1015F80010C036F011C037F00D0E36183710D8A4C9
:10160800F5D7000E4B6E1200000E146E000E136E0E
:1016180013D08D82060E126E070EE82EFED7122EFC
:10162800FCD78D923C0E126EE60EE82EFED7122ED7
:10163800FCD700F0134A142A4D50135C4E5014582E
:10164800D8B01200E6D7000E146E000E136E13D039
:101658008988060E126E070EE82EFED7122EFCD7CA
:1016680089982F0E126EE90EE82EFED7122EFCD79F
:1016780000D0134A142A4D50135C4E501458D8B059
:101688001200E6D7000E116E000E106ED2EC06F0B6
:101698000B0E176E260E166E5E0EE82EFED7162E51
:1016A800FCD7172EFAD7000E116E000E106E27EC1D
:1016B8000BF01200000E116E010E106ED2EC06F047
:1016C8000B0E176E260E166E5E0EE82EFED7162E21
:1016D800FCD7172EFAD7000E116E010E106EAAEC69
:1016E8000AF01200116E13EC0CF0C58613EC0CF026
:1016F800C9CF12F013EC0CF01150D8A402D0C58A4F
:1017080001D0C59AC588125012001150AA6E10C097
:10171800A9FF12C0A8FFA69EA69CA684550EA76E78
:10172800AA0EA76EA682A1A8FED7A198A694120019
:1017380010501202F3CF14F0F4CF15F0105013022A
:10174800F350152611501202F350152614C010F04C
:1017580015C011F01200126E000E116E3A0E1260D2
:1017680005D02F0E126402D0010E116E11C010F0B8
:10177800103012001CEC0CF0FF0AD8A41200000E66
:10178800116E000E106E000E126E89EC0BF0120036
:1017980080A405D0000E116E010E106E1200000E0E
:1017A800116E000E106E120082A005D0000E116E90
:1017B800010E106E1200000E116E000E106E120057
:1017C80080A005D0000E116E010E106E1200000EE2
:1017D800116E000E106E120080A605D0000E116E5C
:1017E800010E106E1200000E116E000E106E120027
:1017F80080A205D0000E116E010E106E1200000EB0
:10180800116E000E106E12001150AA6E10C0A9FFC2
:10181800A69EA69CA680A6B0FED7A8501200C7B464
:10182800FED7C5CF10F01F0E1016D8B41200F7D788
:10183800000E116E000E106E08EC0CF01200126E05
:101848008C84125057EC09F01200126E8C941250CE
:1018580057EC09F0120013EC0CF011C0C9FF12008C
:1018680013EC0CF0C584120013EC0CF0C5801200C8
:021878001E0050
:10FEC400003132334134353642373839432A30230E
:10FED400440001000A006400E80310270100100038
:10FEE4000001001000592002270317253033642035
:10FEF4002020202020202020202020202000614EAF
:10FF040025642F6125642F734E25642F53256400C7
:10FF1400457865637574696E672020202025303329
:10FF240064003031323334353637383961626364D2
:10FF34006566002020202020202020202020202052
:10FF440020202000303A4D656E752020202020208E
:10FF5400202020200046696E697368656420202093
:10FF64002020202020005465726D696E61746564E0
:10FF740020202020202000457865637574696E6711
:10FF84002E2E2E2020202000696E697469616C6910
:10FF94007A696E672020202000313A5072657620FD
:10FFA400303A4578697420202000313A53746172E4
:10FFB4007420323A4C6F6773202000253032782F3A
:10FFC400253031782F2530327820002530327825BD
:10FFD4003032782F253032782000253032783A2597
:10FFE4003032783A2530327800676F696E67206462
:0CFFF40065627567006572726F72000034
:020000040020DA
:08000000FFFFFFFFFFFFFFFF00
:020000040030CA
:0E000000FF021F1EFF8381FF0FC00FE00F40A5
:00000001FF
