:0400000007EF00F016
:100008005B8259ED07F085EF0AF0000E00019D6F45
:10001800000E9C6F000E00019F6F000E9E6FAC0ECD
:10002800136E000E146E02EC08F020EEB0F0DECF76
:1000380034F0DDCF35F0040E366E353435323432D7
:10004800362EFBD70F0E34140001806F0001816B30
:100058000F0E0001B0150001826F0001836B20EEC6
:10006800AEF0DECF34F0DDCF35F0040E366E353429
:1000780035323432362EFBD70F0E34140001846F1C
:100088000001856B0F0E0001AE150001866F00019F
:10009800876BACC034F0ADC035F0040E366E353425
:1000A80035323432362EFBD70F0E34140001886FE8
:1000B8000001896B0F0E0001AC1500018A6F000169
:1000C8008B6B84C010F085C011F0000E136E0A0E01
:1000D800126EBEEC0AF000018651102400018C6FEC
:1000E80000018751112000018D6F80C010F081C080
:1000F80011F0000E136E0A0E126EBEEC0AF000012B
:100108008251102400018E6F0001835111200001DB
:100118008F6F88C010F089C011F0000E136E0A0EA0
:10012800126EBEEC0AF010C034F011C035F08EC06B
:1001380010F08FC011F00E0E136E100E126EBEEC82
:100148000AF010503426115035228CC010F08DC0A2
:1001580011F0000E136E3C0E126EBEEC0AF0105039
:1001680034261150352200018A5134240001A06F31
:1001780000018B5135200001A16F8B8CF29E96EC0B
:1001880005F0A0C018F0A1C019F0F4EC04F018C0F4
:10019800A2F019C0A3F0000E0001A76F010EA66F10
:1001A800000E0001A96F010EA86F000E0001996FE3
:1001B800010E986F000E00019B6F010E9A6F000EE2
:1001C8000001AB6F000EAA6F000E116E010E106ECB
:1001D80095EC06F0000E116E020E106E95EC06F00E
:1001E800000E116E030E106E95EC06F0000E116EE7
:1001F800000E106E95EC06F06DD196EC05F0800EB1
:1002080049EC0BF0360E1C6EFF0E1D6EAAC01EF0D8
:10021800ABC01FF095EC02F0EEEC0AF01050111094
:10022800D8A405D0000E0001A76F000EA66F80B6F7
:1002380005D0000E0001A96F000EA86F06EC0BF0A8
:1002480010501110D8A405D0000E0001996F000EAF
:10025800986F12EC0BF010501110D8A405D0000EB6
:1002680000019B6F000E9A6F0001A6510001A711B3
:10027800D8A423D0000E0001AB6F000EAA6F0001B6
:100288009C5100019D11D8A418D00D0E356EAF0EEB
:10029800346EB60EE82EFED7342EFCD7352EFAD79C
:1002A80000D055EC0AF0000E00019D6F010E9C6F06
:1002B800000E0001A76F010EA66F0001A8510001F2
:1002C800A911D8A423D0000E0001AB6F000EAA6FAD
:1002D80000019E5100019F11D8A418D00D0E356E53
:1002E800AF0E346EB60EE82EFED7342EFCD7352E60
:1002F800FAD700D06DEC0AF0000E00019F6F010ED6
:100308009E6F000E0001A96F010EA86F0001A605DF
:100318000001A711D8A409D00001A8050001A9115E
:10032800D8A403D00001AA4BAB2B000198510001BF
:100338009911D8A453D0040E356ECF0E346E020E28
:10034800E82EFED7342EFCD7352EFAD7FAEC0AF071
:1003580010041110D8A405D0000E0001A56F000EDE
:1003680004D0000E0001A56F010EA46F0001A45176
:100378000001A511D8A414D0000E116E020E106E43
:10038800F8EC06F0000E116E020E106E95EC06F0F9
:10039800000E00019D6F000E9C6F494A4A2A19D031
:1003A8000001A4050001A511D8A413D0000E116EF8
:1003B800020E106E32EC06F0000E116E020E106E78
:1003C80095EC06F0000E00019D6F000E9C6F474AE9
:1003D800482A000E0001996F010E986F00019A518A
:1003E80000019B11D8A43ED00D0E356EAF0E346EB1
:1003F800B60EE82EFED7342EFCD7352EFAD700D00D
:1004080029EC0BF010501110D8B414D01A0E356E18
:100418005E0E346E6E0EE82EFED7342EFCD7352EC7
:10042800FAD700D0000E00019F6F000E9E6F434A5E
:10043800442A13D01A0E356E5E0E346E6E0EE82EF8
:10044800FED7342EFCD7352EFAD700D0000E000187
:100458009F6F000E9E6F414A422A000E00019B6F5B
:10046800010E9A6FA0C018F0A1C019F0F4EC04F0C6
:1004780018C0A2F019C0A3F00001ABBF0FD0000153
:10048800AB5105E1150E0001AA5DD8A007D0020EF8
:100498004B6E000E466E010E456E12000001A3BFA2
:1004A8000ED00001A35105E1B50E0001A25DD8A050
:1004B80006D0020E4B6E000E466E000EEDD7070EEC
:1004C800356E580E346E5A0EE82EFED7342EFCD7F1
:1004D800352EFAD70001A3BF08D00001A35107E1C8
:1004E800B40E0001A25DD8B002D081B086D68B9C34
:1004F80043C090F044C091F041C092F042C093F0E4
:1005080047C094F048C095F049C096F04AC097F0AB
:10051800900E136E000E146E86EC09F0020E4B6EF0
:1005280012001E0E2B6E000E2C6E74D1250E331881
:10053800D8B404D0335043EC0BF06CD1000E326EBB
:10054800000E316E000E306E03D030841C4A1D2A16
:100558001CC0F6FF1DC0F7FF0800F550300AD8B4DC
:10056800F4D71CC0F6FF1DC0F7FF0800F550D1EC0A
:100578000AF0D8A035D0000E326E000E316E31C0B0
:1005880010F032C011F0000E136E0A0E126EBEEC9F
:100598000AF010C031F011C032F0D00E266EFF0EF6
:1005A800276E1CC0F6FF1DC0F7FF0800F550286E27
:1005B800296A2650282627502922285031262950D2
:1005C80032221C4A1D2A1CC0F6FF1DC0F7FF080076
:1005D800F550D1EC0AF0D8A003D0D1D7308E17D07F
:1005E8001CC0F6FF1DC0F7FF1C4A1D2A0800F5CFE6
:1005F80033F03350000AD8B41200640AD8B407D0D4
:100608000D0AD8B404D0110AD8B4E8D703D130BE43
:1006180015D02BC0D9FF2CC0DAFFDECF2EF0DDCFEE
:100628002FF0020E2B26000E2C222FAE44D0030EE4
:1006380030122E6C2F1ED8B02F2A3DD02BC0D9FFD8
:100648002CC0DAFFDECF2EF0DDCF2FF0020E2B26E6
:10065800000E2C2230D0010E336E050E3318D8B49C
:1006680032D03350020DF80EF324F66EFE0EF4204D
:10067800F76E0900F5502E5C0900F5502F58D8A0E8
:1006880022D0332AEAD7010E336E040E3318D8B4B9
:100698001AD03350020D020EF324F66EFF0EF4202A
:1006A800F76E0900F5502E5C0900F5502F58D8A0B8
:1006B8000AD0332AEAD73050800B000AD8B4CBD7F7
:1006C800800AD8B4E0D731503210D8B409D030C03D
:1006D80026F0030E2616D8B403D03106D8A0320669
:1006E800800E33BE7F0E266E3150335C3250800A46
:1006F8002658D8B007D03350315E000E33BEFF0EF7
:10070800325A04D0000E326E000E316E30A414D06E
:1007180030C026F0030E2616D8B403D02D0E43ECB5
:100728000BF031503210D8B41ED0300E43EC0BF021
:100738003106D8A03206F5D731503210D8B40AD0D5
:10074800200E43EC0BF03106D8A03206315032109F
:10075800D8A4F6D730C026F0030E2616D8B403D096
:100768002D0E43EC0BF033C02DF050D02D50020D60
:10077800F80EF324F66EFE0EF420F76E0900F5CF9E
:1007880012F00A00F5CF13F02EC010F02FC011F0B0
:100798000EEC09F010C017F011C018F0000E1A6E18
:1007A8000A0E196E17EC0AF01750300F336E2BD063
:1007B8002EC010F02FC011F02D50020D020EF324A0
:1007C800F66EFF0EF420F76E0900F5CF12F00A005E
:1007D800F5CF13F00EEC09F010500F0B2A6E2A50CB
:1007E800010D480EF324F66EFF0EF420F76E080094
:1007F800F5CF33F008D03050800B000AD8B4B6D704
:10080800800AD8B4D5D7335043EC0BF02D062D28E9
:10081800D8A4F1D71CC0F6FF1DC0F7FF1C4A1D2A3B
:100828000800F5CF33F03350D8B412007FD6F00E5D
:10083800D36E000E926EF20E936E000E946E000E42
:10084800956E000E966E000E896E000E8A6E000E72
:100858008B6E000E8C6E000E8D6E000EC26E000E3A
:10086800C16EF4EC09F0100E1D6E270E1E6E000E00
:100878001F6E000E206EB6EC08F0F29E550E896EC3
:10088800550E8A6E550E8B6E8C808C928D808D9253
:10089800000E366E000E356E000E3F6E000E3E6E78
:1008A80095D058EC0BF0000E126ED00E116E4FEC76
:1008B8000BF0000E126E000E116E4FEC0BF054ECA4
:1008C8000BF058EC0BF0000E126ED10E116E4FECBF
:1008D8000BF0000E406E050E406401D00ED0405063
:1008E800010D370EF324D96E000EF420DA6E010ED6
:1008F80098EC0AF0DF6E402AEED7000E98EC0AF06A
:100908003D6E54EC0BF0800E49EC0BF0CF0E1C6ED4
:10091800FF0E1D6E3DC01EF01F6A3CC020F0216A0C
:100928003BC022F0236A95EC02F0DE0E1C6EFF0E2F
:100938001D6E39C01EF01F6A38C020F0216A37C00A
:1009480022F0236A95EC02F0C00E49EC0BF0150E6C
:100958001C6EFF0E1D6E95EC02F0800E49EC0BF03C
:10096800C00E49EC0BF0891E8A1E8B1E8CB003D07A
:10097800346A342A01D0346A8C503418FE0B341887
:100988008C6E8CB203D0346A342A01D0346A34466F
:100998008C503418FD0B34188C6E8DB003D0346A2B
:1009A800342A01D0346A8D503418FE0B34188D6EF9
:1009B8008DB203D0346A342A01D0346A34468D505B
:1009C8003418FD0B34188D6E3E4A3F2A3FBE69D756
:1009D8003F5005E10A0E3E5CD8B0120062D7120003
:1009E8004C0E136E000E146E02EC08F020EE50F060
:1009F800DECF1AF0DDCF1BF0040E1C6E1B341B3249
:100A08001A321C2EFBD70F0E1A141D6E1E6A0F0EFB
:100A180050141F6E206A20EE4EF0DECF1AF0DDCFA4
:100A28001BF0040E1C6E1B341B321A321C2EFBD713
:100A38000F0E1A14216E226A0F0E4E14236E246AAA
:100A48004CC01AF04DC01BF0040E1C6E1B341B3238
:100A58001A321C2EFBD70F0E1A14256E266A0F0E9B
:100A68004C14276E286A21C010F022C011F0000E25
:100A7800136E0A0E126EBEEC0AF0235010242B6E71
:100A8800245011202C6E1DC010F01EC011F0000E55
:100A9800136E0A0E126EBEEC0AF01F5010242D6E53
:100AA800205011202E6E25C010F026C011F0000E27
:100AB800136E0A0E126EBEEC0AF010C01AF011C0C6
:100AC8001BF02DC010F02EC011F00E0E136E100E7C
:100AD800126EBEEC0AF010501A2611501B222BC0C1
:100AE80010F02CC011F0000E136E3C0E126EBEEC0E
:100AF8000AF010501A2611501B2227501A24296E6A
:100B080028501B202A6E18C01AF019C01BF01A1E94
:100B18001B1E1A4A1B2A29501A24186E2A501B20F9
:100B2800196E1200800E49EC0BF083D0BF0E1C6EBC
:100B3800FF0E1D6E58C01EF059C01FF056C020F0A1
:100B480057C021F054C022F055C023F095EC02F0B4
:100B5800DE0E1C6EFF0E1D6E50C01EF051C01FF041
:100B68004EC020F04FC021F04CC022F04DC023F001
:100B780095EC02F0C00E49EC0BF0AE0E1C6EFF0EA9
:100B88001D6E95EC02F063D0110E1C6EFF0E1D6EEB
:100B98005AC01EF01F6A95EC02F0C00E49EC0BF02B
:100BA8009D0E1C6EFF0E1D6E95EC02F050D08C0E43
:100BB8001C6EFF0E1D6E95EC02F0C00E49EC0BF09A
:100BC800240E1C6EFF0E1D6E41C01EF042C01FF0A9
:100BD80043C020F044C021F049C022F04AC023F0AD
:100BE80047C024F048C025F095EC02F030D0450409
:100BF8004610D8A407D06A0E1C6EFF0E1D6E95EC29
:100C080002F006D07B0E1C6EFF0E1D6E95EC02F0F6
:100C1800C00E49EC0BF0590E1C6EFF0E1D6E95ECC4
:100C280002F015D0F90E1C6EFF0E1D6E95EC02F049
:100C38000ED04B50000AD8B479D7010AD8B4B7D728
:100C4800030AD8B4D4D7010AD8B49ED7EBD7800EFC
:100C580049EC0BF0C00E49EC0BF01200000E156EBB
:100C6800000E146E15505CE11E0E145CD8B0120014
:100C78000AD0898820D0898A1ED08D801CD08D8288
:100C88001AD08A8418D010C012F011C013F0135073
:100C9800000AD8A410D01250000AD8B4EAD7010A22
:100CA800D8B4E9D7030AD8B4E8D7010AD8B4E7D743
:100CB800070AD8B4E6D7080E126ECA0EE82EFED779
:100CC800122EFCD70AD0899820D0899A1ED08D90F0
:100CD8001CD08D921AD08A9418D010C012F011C06E
:100CE80013F01350000AD8A410D01250000AD8B438
:100CF800EAD7010AD8B4E9D7030AD8B4E8D7010A71
:100D0800D8B4E7D7070AD8B4E6D73A0E126E230E3E
:100D1800E82EFED7122EFCD700F0144A152AA2D7C7
:100D28001200000E156E000E146E15505CE11E0EBA
:100D3800145CD8B012000AD0898820D0898A1ED0C5
:100D48008D801CD08D821AD08A8418D010C012F0E1
:100D580011C013F01350000AD8A410D01250000A82
:100D6800D8B4EAD7010AD8B4E9D7030AD8B4E8D77F
:100D7800010AD8B4E7D7070AD8B4E6D7050E126E29
:100D8800DE0EE82EFED7122EFCD70AD0899820D086
:100D9800899A1ED08D901CD08D921AD08A9418D022
:100DA80010C012F011C013F01350000AD8A410D0CC
:100DB8001250000AD8B4EAD7010AD8B4E9D7030A0E
:100DC800D8B4E8D7010AD8B4E7D7070AD8B4E6D721
:100DD8003D0E126E0F0EE82EFED7122EFCD700F035
:100DE800144A152AA2D71200000E156E000E146EB2
:100DF80015505AE11E0E145CD8B012000AD089882A
:100E080020D0898A1ED08D801CD08D821AD08A84E9
:100E180018D010C012F011C013F01350000AD8A453
:100E280010D01250000AD8B4EAD7010AD8B4E9D7CA
:100E3800030AD8B4E8D7010AD8B4E7D7070AD8B460
:100E4800E6D7D60E00D000D0E82EFCD700D00AD0C6
:100E5800899820D0899A1ED08D901CD08D921AD056
:100E68008A9418D010C012F011C013F01350000A61
:100E7800D8A410D01250000AD8B4EAD7010AD8B4BE
:100E8800E9D7030AD8B4E8D7010AD8B4E7D7070ADC
:100E9800D8B4E6D73F0E126EFC0EE82EFED7122EFF
:100EA800FCD7144A152AA4D712000600FACF01F07D
:100EB800FBCF02F0E9CF03F0EACF04F0E1CF05F071
:100EC800E2CF06F0D9CF07F0DACF08F0F3CF09F078
:100ED800F4CF0AF0F6CF0BF0F7CF0CF0F8CF0DF007
:100EE800F5CF0EF0F0A01CD081380F0B0F0B0F6E52
:100EF8000D0E0F18D8A4F8D7000E896E000E8A6E52
:100F0800000E8B6E000E8C6E000E8D6E8B9C8A9080
:100F1800020E4B6E000E466E000E456EF29EF0906D
:100F28000EC0F5FF0DC0F8FF0CC0F7FF0BC0F6FFB1
:100F38000AC0F4FF09C0F3FF08C0DAFF07C0D9FFF1
:100F480006C0E2FF05C0E1FF04C0EAFF03C0E9FFF5
:100F580002C0FBFF01C0FAFF5B9211001BEC04F01A
:100F6800F00ED36E0F0E926EF20E936E1B0E946EF1
:100F7800000E956E000E966E000E896E000E8A6E3B
:100F8800000E8B6E000E8C6E000E8D6E000EC26E03
:100F98000F0EC16E070EB46EF4EC09F0E0EC0AF027
:100FA800100E1D6E270E1E6E000E1F6E000E206E98
:100FB800B6EC08F0F086F29E000E4B6E0ED0ACEC4C
:100FC80009F00BD009EC00F008D038EC0AF005D095
:100FD8005FEC09F002D037EC09F04B50000AD8B4A6
:100FE800EED7010AD8B4EED7030AD8B4EED7010A6F
:100FF800D8B4EED7060AD8B4EED7EFD758EC0BF032
:10100800000E126ED00E116E4FEC0BF0000E126E29
:10101800000E116E4FEC0BF054EC0BF058EC0BF08B
:10102800000E126ED10E116E4FEC0BF0000E176E03
:10103800050E176401D013D0010E98EC0AF0156E56
:10104800166A1750020DF3501324D96EF450142069
:10105800DA6E15C0DEFF16C0DDFF172AE9D7000ECD
:1010680098EC0AF0156E166A20EE0CF01350D9268B
:101078001450DA2215C0DEFF16C0DDFF54EC0BF069
:101088001200000E186E000E196E000E1A6E000E79
:101098001B6E1450151016101710D8B42AD0010E54
:1010A8001C6E06D0D89014361536163617361C2AFC
:1010B80017AEF8D7D890183619361A361B3614508A
:1010C800105C155011581650125817501358D8A0C4
:1010D80009D01450105E1550115A1650125A175054
:1010E800135A1880D89017321632153214321C2E23
:1010F800E1D718C010F019C011F01AC012F01BC0C7
:1011080013F012003CEC0BF0186E1250050DF35062
:1011180000081824186E000E1A6E000E196E1ABEFA
:1011280006D01A501EE1050E195CD8B012001850EE
:101138001924106E000E1A20116E1EEC0BF0166E9C
:10114800176AD8901934D96E1A34DA6E1450D92621
:101158001550DA2216C0DEFF17C0DDFF194A1A2A19
:10116800DED71200000EC76E280EC66E000EC56EC2
:10117800800E106E960E116E980E126E000E136E83
:101188001DC021F01EC022F01FC023F020C024F093
:10119800020ED8902136223623362436E82EF9D787
:1011A80021C014F022C015F023C016F024C017F097
:1011B80045EC08F01004C86E948694881200116EED
:1011C8001150F00B106E8C500F0B8C6E10508C1051
:1011D8008C6E8C96140EE82EFED700D08C86140EDA
:1011E800E82EFED700D01138F00B116E1150F00B1D
:1011F800106E8C500F0B8C6E10508C108C6E8C9661
:10120800140EE82EFED700D08C86140EE82EFED7DA
:1012180000D01200000E166E000E156E125013103C
:10122800D8B41CD0010E146E04D0D89012361336E0
:10123800142A13AEFAD7D890153616361250105C09
:1012480013501158D8A005D01250105E1350115ADF
:101258001580D89013321232142EEDD715C010F025
:1012680016C011F012008B8C800E49EC0BF0ED0EBD
:101278001C6EFF0E1D6E95EC02F0C00E49EC0BF0D3
:10128800000E116E040E106E95EC06F0000E116E35
:10129800040E106E32EC06F0000E116E040E106E85
:1012A800F8EC06F0000E116E040E106E32EC06F02B
:1012B800000E4B6E120096EC05F0000E356E000E17
:1012C800346ED0EC09F010C036F011C037F0360497
:1012D8003710D8A40FD0344A352A34C012F035C09C
:1012E80013F05A0E146E000E156E86EC08F096EC8C
:1012F80005F012000D0E36183710D8A4E2D7000EEC
:101308004B6E12003CEC0BF0050F156E000E116EC3
:10131800000E106E15C012F0ABEC0AF0000E176E3E
:10132800000E166E17BE06D0175011E1050E165C9A
:10133800D8B0120015501624106E000E1720116E2A
:10134800FF0E126EABEC0AF0164A172AEBD7120002
:101358008A808B9C4C0E136E000E146E02EC08F003
:1013680096EC05F0D0EC09F010C034F011C035F05F
:1013780034503510D8A403D0010E4B6E120034043B
:101388003510D8A402D0030EF8D7030E3418351040
:10139800D8A4E0D7050EF1D7000E146E000E136E18
:1013A80014BE06D0145019E1C80E135CD8B015D07D
:1013B80081A20CD081380F0B0F0B126E81B2FED7B1
:1013C80000F000F012C010F0116A1200134A142A3B
:1013D80014BEEED7145001E1E7D710681168120067
:1013E800310E136EB20EE82EFED7132EFCD700D0A6
:1013F800330E49EC0BF0320E49EC0BF0280E49EC99
:101408000BF00F0E49EC0BF0060E49EC0BF0010E39
:1014180049EC0BF0310E136EB20EE82EFED7132EE8
:10142800FCD700D0120019501A10D8B418D0010EE9
:101438001B6E04D0D89019361A361B2A1AAEFAD762
:101448001950175C1A501858D8A004D01950175EB4
:101458001A50185AD8901A3219321B2EF1D717C0C1
:1014680017F018C018F01200F29E0D0E356EAF0E70
:10147800346EB60EE82EFED7342EFCD7352EFAD7AA
:1014880000D096EC05F0D0EC09F010C036F011C091
:1014980037F00D0E36183710D8A4F5D7000E4B6E5E
:1014A8001200000E116E000E106E32EC06F0020EE5
:1014B800176E450E166EAA0EE82EFED7162EFCD70E
:1014C800172EFAD7000E116E000E106E95EC06F06E
:1014D8001200000E116E010E106E32EC06F0020EB4
:1014E800176E450E166EAA0EE82EFED7162EFCD7DE
:1014F800172EFAD7000E116E010E106E95EC06F03D
:10150800120000EEACF00E0EEE6AE806FDE100EE09
:1015180041F01A0EEE6AE806FDE15B905B92000E60
:10152800F86E0001B2EF07F0116E33EC0BF0C586D0
:1015380033EC0BF0C9CF12F033EC0BF01150D8A4F8
:1015480002D0C58A01D0C59AC58812501200115020
:10155800AA6E10C0A9FF12C0A8FFA69EA69CA684CA
:10156800550EA76EAA0EA76EA682A1A8FED7A198AF
:10157800A694120010501202F3CF14F0F4CF15F015
:1015880010501302F350152611501202F35015266D
:1015980014C010F015C011F01200126E000E116E7A
:1015A8003A0E126005D02F0E126402D0010E116E91
:1015B80011C010F0103012003CEC0BF0FF0AD8A458
:1015C8001200000E116E000E106E000E126EABECC3
:1015D8000AF0120080A405D0000E116E010E106EE4
:1015E8001200000E116E000E106E120082A005D0BF
:1015F800000E116E010E106E1200000E116E000E1C
:10160800106E120080A005D0000E116E010E106E33
:101618001200000E116E000E106E120080A205D08E
:10162800000E116E010E106E1200000E116E000EEB
:10163800106E12001150AA6E10C0A9FFA69EA69C9B
:10164800A680A6B0FED7A850120082A203D0126AC4
:10165800122A01D0126A1250106E116A1200C7B411
:10166800FED7C5CF10F01F0E1016D8B41200F7D74A
:10167800000E116E000E106E1EEC0BF01200126EB2
:101688008C841250E3EC08F01200126E8C94125005
:10169800E3EC08F0120033EC0BF011C0C9FF1200A4
:1016A80033EC0BF0C584120033EC0BF0C58012004C
:10FEE600003132334134353642373839432A3023EC
:10FEF600440001000A006400E80310270100100016
:10FF06000001001000511403280217253033642025
:10FF16002020202020202020202020202000614E8C
:10FF260025642F6125642F734E25642F53256400A5
:10FF3600457865637574696E672020202025303307
:10FF460064003031323334353637383961626364B0
:10FF5600656600303A4D656E7520202020202020F1
:10FF66002020200046696E69736865642020202081
:10FF760020202020005465726D696E6174656420CE
:10FF8600202020202000457865637574696E672EF1
:10FF96002E2E2020202000313A5072657620303AED
:10FFA6004578697420202000313A537461727420B8
:10FFB600323A4C6F6773202000253032782F253077
:10FFC60031782F25303278200025303278253032AE
:10FFD600782F253032782000253032783A25303295
:10FFE600783A2530327800676F696E6720646562FB
:0AFFF6007567006572726F720000FB
:020000040020DA
:08000000FFFFFFFFFFFFFFFF00
:020000040030CA
:0E000000FF021F1EFF8381FF0FC00FE00F40A5
:00000001FF
