:0400000007EF00F016
:100008005B8274ED07F0D1EF0AF0000E0001816FFA
:10001800000E806F000E0001836F000E826FAE0E1F
:10002800136E000E146E1DEC08F020EEB2F0DECF59
:1000380034F0DDCF35F0040E366E353435323432D7
:10004800362EFBD70F0E34140001846F0001856B28
:100058000F0E0001B2150001866F0001876B20EEBC
:10006800B0F0DECF34F0DDCF35F0040E366E353427
:1000780035323432362EFBD70F0E34140001886F18
:100088000001896B0F0E0001B01500018A6F000195
:100098008B6BAEC034F0AFC035F0040E366E35341D
:1000A80035323432362EFBD70F0E341400018C6FE4
:1000B80000018D6B0F0E0001AE1500018E6F00015F
:1000C8008F6B88C010F089C011F0000E136E0A0EF5
:1000D800126E0AEC0BF000018A5110240001906F97
:1000E80000018B5111200001916F84C010F085C070
:1000F80011F0000E136E0A0E126E0AEC0BF00001DE
:10010800865110240001926F0001875111200001CF
:10011800936F8CC010F08DC011F0000E136E0A0E94
:10012800126E0AEC0BF010C034F011C035F092C01A
:1001380010F093C011F00E0E136E100E126E0AEC32
:100148000BF0105034261150352290C010F091C099
:1001580011F0000E136E3C0E126E0AEC0BF01050EC
:1001680034261150352200018E51342400019C6F31
:1001780000018F51352000019D6F8B8CF29EB1ECF0
:1001880005F09CC018F09DC019F00FEC05F018C0E0
:10019800A0F019C0A1F0000E0001A56F010EA46F18
:1001A800000E0001A76F010EA66F000E0001A96FD7
:1001B800010EA86F000E0001AB6F010EAA6F000EB2
:1001C8000001AD6F000EAC6F000E116E010E106EC7
:1001D800B0EC06F0000E116E020E106EB0EC06F0D8
:1001E800000E116E030E106EB0EC06F0000E116ECC
:1001F800000E106EB0EC06F0000E116E040E106EBC
:1002080013EC07F082D1B1EC05F0800E97EC0BF0FF
:10021800360E1C6EFF0E1D6EACC01EF0ADC01FF07A
:10022800B0EC02F03AEC0BF010501110D8A405D045
:10023800000E0001A56F000EA46F5EEC0BF01050CD
:100248001110D8A405D0000E0001A76F000EA66FEC
:1002580052EC0BF010501110D8A405D0000E00017C
:10026800A96F000EA86F6AEC0BF010501110D8A4FB
:1002780005D0000E0001AB6F000EAA6F0001A4515B
:100288000001A511D8A423D0000E0001AD6F000E07
:10029800AC6F0001A8050001A911D8A418D00D0E53
:1002A800356EAF0E346EB60EE82EFED7342EFCD760
:1002B800352EFAD700D0A1EC0AF0000E0001816FAC
:1002C800010E806F000E0001A56F010EA46F0001E2
:1002D800A6510001A711D8A423D0000E0001AD6FCC
:1002E800000EAC6F0001AA050001AB11D8A418D00C
:1002F8000D0E356EAF0E346EB60EE82EFED7342EC8
:10030800FCD7352EFAD700D0B9EC0AF0000E000160
:10031800836F010E826F000E0001A76F010EA66F9A
:100328000001A4050001A511D8A409D00001A60563
:100338000001A711D8A403D00001AC4BAD2B0001DC
:10034800A8510001A911D8A459D00D0E356EAF0ED1
:10035800346EB60EE82EFED7342EFCD7352EFAD7DB
:1003680000D0000E0001AD6F000EAC6F46EC0BF034
:1003780010041110D8A405D0000E0001A36F000EC0
:1003880004D0000E0001A36F010EA26F0001A2515C
:100398000001A311D8A414D0000E116E020E106E25
:1003A80013EC07F0000E116E020E106EB0EC06F0A2
:1003B800000E0001816F000E806F494A4A2A19D049
:1003C8000001A2050001A311D8A413D0000E116EDC
:1003D800020E106E4DEC06F0000E116E020E106E3D
:1003E800B0EC06F0000E0001816F000E806F474AE6
:1003F800482A000E0001A96F010EA86F0001AA513A
:100408000001AB11D8A449D0000E0001AD6F000E59
:10041800AC6F0D0E356EAF0E346EB60EE82EFED7ED
:10042800342EFCD7352EFAD700D0A1EC08F010C036
:100438009EF011C09FF0000E116E040E106E13ECAA
:1004480007F000019E5100019F11D8B40ED0000E94
:10045800116E030E106E13EC07F0000E0001836F8F
:10046800000E826F434A442A13D000019E510001B6
:100478009F11D8A40DD0000E116E030E106E4DEC16
:1004880006F0000E0001836F000E826F414A422A77
:10049800000E0001AB6F010EAA6F9CC018F09DC042
:1004A80019F00FEC05F018C0A0F019C0A1F0000178
:1004B800ADBF0FD00001AD5105E1150E0001AC5DD7
:1004C800D8A007D0020E4B6E000E466E010E456E88
:1004D80012000001A1BF0ED00001A15105E1B50E27
:1004E8000001A05DD8A006D0020E4B6E000E466E2D
:1004F800000EEDD7070E356E580E346E5A0EE82EE4
:10050800FED7342EFCD7352EFAD70001A1BF08D06C
:100518000001A15107E1B40E0001A05DD8B002D0DE
:1005280081B071D68B9C43C094F044C095F041C013
:1005380096F042C097F047C098F048C099F049C07B
:100548009AF04AC09BF0940E136E000E146EAEEC37
:1005580009F0020E4B6E12001E0E2B6E000E2C6E52
:1005680074D1250E3318D8B404D0335091EC0BF065
:100578006CD1000E326E000E316E000E306E03D05C
:1005880030841C4A1D2A1CC0F6FF1DC0F7FF080056
:10059800F550300AD8B4F4D71CC0F6FF1DC0F7FFD9
:1005A8000800F5501DEC0BF0D8A035D0000E326EC7
:1005B800000E316E31C010F032C011F0000E136E13
:1005C8000A0E126E0AEC0BF010C031F011C032F0B6
:1005D800D00E266EFF0E276E1CC0F6FF1DC0F7FF5B
:1005E8000800F550286E296A265028262750292207
:1005F80028503126295032221C4A1D2A1CC0F6FFD9
:100608001DC0F7FF0800F5501DEC0BF0D8A003D073
:10061800D1D7308E17D01CC0F6FF1DC0F7FF1C4A7B
:100628001D2A0800F5CF33F03350000AD8B4120061
:10063800640AD8B407D00D0AD8B404D0110AD8B4C3
:10064800E8D703D130BE15D02BC0D9FF2CC0DAFFB4
:10065800DECF2EF0DDCF2FF0020E2B26000E2C223F
:100668002FAE44D0030E30122E6C2F1ED8B02F2A76
:100678003DD02BC0D9FF2CC0DAFFDECF2EF0DDCF66
:100688002FF0020E2B26000E2C2230D0010E336ED6
:10069800050E3318D8B432D03350020DF80EF324B7
:1006A800F66EFE0EF420F76E0900F5502E5C090078
:1006B800F5502F58D8A022D0332AEAD7010E336E2E
:1006C800040E3318D8B41AD03350020D020EF32496
:1006D800F66EFF0EF420F76E0900F5502E5C090047
:1006E800F5502F58D8A00AD0332AEAD73050800BBB
:1006F800000AD8B4CBD7800AD8B4E0D7315032102A
:10070800D8B409D030C026F0030E2616D8B403D0CA
:100718003106D8A03206800E33BE7F0E266E3150C9
:10072800335C3250800A2658D8B007D03350315E37
:10073800000E33BEFF0E325A04D0000E326E000E89
:10074800316E30A414D030C026F0030E2616D8B46B
:1007580003D02D0E91EC0BF031503210D8B41ED0CE
:10076800300E91EC0BF03106D8A03206F5D7315097
:100778003210D8B40AD0200E91EC0BF03106D8A074
:10078800320631503210D8A4F6D730C026F0030E06
:100798002616D8B403D02D0E91EC0BF033C02DF0F3
:1007A80050D02D50020DF80EF324F66EFE0EF420F4
:1007B800F76E0900F5CF12F00A00F5CF13F02EC03E
:1007C80010F02FC011F05EEC09F010C017F011C046
:1007D80018F0000E1A6E0A0E196E63EC0AF0175024
:1007E800300F336E2BD02EC010F02FC011F02D50CB
:1007F800020D020EF324F66EFF0EF420F76E0900C8
:10080800F5CF12F00A00F5CF13F05EEC09F01050A6
:100818000F0B2A6E2A50010D480EF324F66EFF0EB8
:10082800F420F76E0800F5CF33F008D03050800B75
:10083800000AD8B4B6D7800AD8B4D5D7335091ECCB
:100848000BF02D062D28D8A4F1D71CC0F6FF1DC02B
:10085800F7FF1C4A1D2A0800F5CF33F03350D8B4EF
:1008680012007FD6F00ED36E000E926EF20E936ECB
:10087800000E946E000E956E000E966E000E896E38
:10088800000E8A6E000E8B6E000E8C6E000E8D6E42
:10089800000EC26E000EC16E40EC0AF0100E1D6E06
:1008A800270E1E6E000E1F6E000E206E06EC09F05D
:1008B800F29E550E896E550E8A6E550E8B6E8C8083
:1008C8008C928D808D92000E366E000E356E000E65
:1008D8003F6E000E3E6E95D0A6EC0BF0000E126E29
:1008E800D00E116E9DEC0BF0000E126E000E116E04
:1008F8009DEC0BF0A2EC0BF0A6EC0BF0000E126EC8
:10090800D10E116E9DEC0BF0000E406E050E40648A
:1009180001D00ED04050010D370EF324D96E000ED1
:10092800F420DA6E010EE4EC0AF0DF6E402AEED70E
:10093800000EE4EC0AF03D6EA2EC0BF0800E97EC92
:100948000BF0CF0E1C6EFF0E1D6E3DC01EF01F6A11
:100958003CC020F0216A3BC022F0236AB0EC02F0D0
:10096800DE0E1C6EFF0E1D6E39C01EF01F6A38C0E9
:1009780020F0216A37C022F0236AB0EC02F0C00EE2
:1009880097EC0BF0150E1C6EFF0E1D6EB0EC02F00E
:10099800800E97EC0BF0C00E97EC0BF0891E8A1EA8
:1009A8008B1E8CB003D0346A342A01D0346A8C5040
:1009B8003418FE0B34188C6E8CB203D0346A342A87
:1009C80001D0346A34468C503418FD0B34188C6EC0
:1009D8008DB003D0346A342A01D0346A8D5034186B
:1009E800FE0B34188D6E8DB203D0346A342A01D0D0
:1009F800346A34468D503418FD0B34188D6E3E4AD7
:100A08003F2A3FBE69D73F5005E10A0E3E5CD8B089
:100A1800120062D712004C0E136E000E146E1DECFD
:100A280008F020EE50F0DECF1AF0DDCF1BF0040EF8
:100A38001C6E1B341B321A321C2EFBD70F0E1A14D5
:100A48001D6E1E6A0F0E50141F6E206A20EE4EF0A7
:100A5800DECF1AF0DDCF1BF0040E1C6E1B341B32E8
:100A68001A321C2EFBD70F0E1A14216E226A0F0E93
:100A78004E14236E246A4CC01AF04DC01BF0040EAD
:100A88001C6E1B341B321A321C2EFBD70F0E1A1485
:100A9800256E266A0F0E4C14276E286A21C010F0A6
:100AA80022C011F0000E136E0A0E126E0AEC0BF043
:100AB800235010242B6E245011202C6E1DC010F0D2
:100AC8001EC011F0000E136E0A0E126E0AEC0BF027
:100AD8001F5010242D6E205011202E6E25C010F0AE
:100AE80026C011F0000E136E0A0E126E0AEC0BF0FF
:100AF80010C01AF011C01BF02DC010F02EC011F05C
:100B08000E0E136E100E126E0AEC0BF010501A2611
:100B180011501B222BC010F02CC011F0000E136EC8
:100B28003C0E126E0AEC0BF010501A2611501B22C4
:100B380027501A24296E28501B202A6E18C01AF034
:100B480019C01BF01A1E1B1E1A4A1B2A29501A24E8
:100B5800186E2A501B20196E1200800E97EC0BF0AD
:100B680083D0BF0E1C6EFF0E1D6E58C01EF059C0FC
:100B78001FF056C020F057C021F054C022F055C0D5
:100B880023F0B0EC02F0DE0E1C6EFF0E1D6E50C09E
:100B98001EF051C01FF04EC020F04FC021F04CC0D5
:100BA80022F04DC023F0B0EC02F0C00E97EC0BF031
:100BB800AE0E1C6EFF0E1D6EB0EC02F063D0110E6F
:100BC8001C6EFF0E1D6E5AC01EF01F6AB0EC02F0BC
:100BD800C00E97EC0BF09D0E1C6EFF0E1D6EB0EC58
:100BE80002F050D08C0E1C6EFF0E1D6EB0EC02F0A1
:100BF800C00E97EC0BF0240E1C6EFF0E1D6E41C04C
:100C08001EF042C01FF043C020F044C021F049C08C
:100C180022F04AC023F047C024F048C025F0B0ECC9
:100C280002F030D045044610D8A407D06A0E1C6ED6
:100C3800FF0E1D6EB0EC02F006D07B0E1C6EFF0E90
:100C48001D6EB0EC02F0C00E97EC0BF0590E1C6E46
:100C5800FF0E1D6EB0EC02F015D0F90E1C6EFF0EE3
:100C68001D6EB0EC02F00ED04B50000AD8B479D704
:100C7800010AD8B4B7D7030AD8B4D4D7010AD8B46C
:100C88009ED7EBD7800E97EC0BF0C00E97EC0BF0CD
:100C98001200000E156E000E146E15505CE11E0E4B
:100CA800145CD8B012000AD0898820D0898A1ED056
:100CB8008D801CD08D821AD08A8418D010C012F072
:100CC80011C013F01350000AD8A410D01250000A13
:100CD800D8B4EAD7010AD8B4E9D7030AD8B4E8D710
:100CE800010AD8B4E7D7070AD8B4E6D7080E126EB7
:100CF800CA0EE82EFED7122EFCD70AD0899820D02B
:100D0800899A1ED08D901CD08D921AD08A9418D0B2
:100D180010C012F011C013F01350000AD8A410D05C
:100D28001250000AD8B4EAD7010AD8B4E9D7030A9E
:100D3800D8B4E8D7010AD8B4E7D7070AD8B4E6D7B1
:100D48003A0E126E230EE82EFED7122EFCD700F0B4
:100D5800144A152AA2D71200000E156E000E146E42
:100D680015505CE11E0E145CD8B012000AD08988B8
:100D780020D0898A1ED08D801CD08D821AD08A847A
:100D880018D010C012F011C013F01350000AD8A4E4
:100D980010D01250000AD8B4EAD7010AD8B4E9D75B
:100DA800030AD8B4E8D7010AD8B4E7D7070AD8B4F1
:100DB800E6D7050E126EDE0EE82EFED7122EFCD7F1
:100DC8000AD0899820D0899A1ED08D901CD08D92F7
:100DD8001AD08A9418D010C012F011C013F0135012
:100DE800000AD8A410D01250000AD8B4EAD7010AD1
:100DF800D8B4E9D7030AD8B4E8D7010AD8B4E7D7F2
:100E0800070AD8B4E6D73D0E126E0F0EE82EFED7AD
:100E1800122EFCD700F0144A152AA2D71200000E91
:100E2800156E000E146E15505AE11E0E145CD8B0E3
:100E380012000AD0898820D0898A1ED08D801CD0C3
:100E48008D821AD08A8418D010C012F011C013F005
:100E58001350000AD8A410D01250000AD8B4EAD708
:100E6800010AD8B4E9D7030AD8B4E8D7010AD8B434
:100E7800E7D7070AD8B4E6D7D60E00D000D0E82EB8
:100E8800FCD700D00AD0899820D0899A1ED08D909E
:100E98001CD08D921AD08A9418D010C012F011C0AC
:100EA80013F01350000AD8A410D01250000AD8B476
:100EB800EAD7010AD8B4E9D7030AD8B4E8D7010AAF
:100EC800D8B4E7D7070AD8B4E6D73F0E126EFC0E9F
:100ED800E82EFED7122EFCD7144A152AA4D71200E2
:100EE8000600FACF01F0FBCF02F0E9CF03F0EACF1A
:100EF80004F0E1CF05F0E2CF06F0D9CF07F0DACF62
:100F080008F0F3CF09F0F4CF0AF0F6CF0BF0F7CFE3
:100F18000CF0F8CF0DF0F5CF0EF0F0A01CD0813812
:100F28000F0B0F0B0F6E0D0E0F18D8A4F8D7000E6D
:100F3800896E000E8A6E000E8B6E000E8C6E000E8F
:100F48008D6E8B9C8A90020E4B6E000E466E000EC4
:100F5800456EF29EF0900EC0F5FF0DC0F8FF0CC074
:100F6800F7FF0BC0F6FF0AC0F4FF09C0F3FF08C083
:100F7800DAFF07C0D9FF06C0E2FF05C0E1FF04C0E1
:100F8800EAFF03C0E9FF02C0FBFF01C0FAFF5B9262
:100F9800110036EC04F0F00ED36E0F0E926EF20EC6
:100FA800936E1B0E946E000E956E000E966E000EDC
:100FB800896E000E8A6E000E8B6E000E8C6E000E0F
:100FC8008D6E000EC26E0F0EC16E070EB46E40EC31
:100FD8000AF02CEC0BF0100E1D6E270E1E6E000E84
:100FE8001F6E000E206E06EC09F0F086F29E000ED1
:100FF8004B6E0ED0D4EC09F00BD009EC00F008D001
:1010080084EC0AF005D087EC09F002D01CEC0AF059
:101018004B50000AD8B4EED7010AD8B4EED7030A69
:10102800D8B4EED7010AD8B4EED7060AD8B4EED7AA
:10103800EFD7A6EC0BF0000E126ED00E116E9DECE1
:101048000BF0000E126E000E116E9DEC0BF0A2EC70
:101058000BF0A6EC0BF0000E126ED10E116E9DEC8B
:101068000BF0000E176E050E176401D013D0010E99
:10107800E4EC0AF0156E166A1750020DF3501324AB
:10108800D96EF4501420DA6E15C0DEFF16C0DDFFED
:10109800172AE9D7000EE4EC0AF0156E166A20EE5E
:1010A8000CF01350D9261450DA2215C0DEFF16C0F2
:1010B800DDFFA2EC0BF01200000E186E000E196E88
:1010C800000E1A6E000E1B6E145015101610171015
:1010D800D8B42AD0010E1C6E06D0D8901436153616
:1010E800163617361C2A17AEF8D7D8901836193680
:1010F8001A361B361450105C1550115816501258D9
:1011080017501358D8A009D01450105E1550115A12
:101118001650125A1750135A1880D8901732163290
:10112800153214321C2EE1D718C010F019C011F076
:101138001AC012F01BC013F0120013681468000ED6
:10114800166E000E156E16BE06D0165026E13C0E21
:10115800155CD8B022D08A84060E126ED70EE82EFF
:10116800FED7122EFCD700F08A943C0E126E160E93
:10117800E82EFED7122EFCD782A204D0000E146EE1
:10118800010E03D0000E146E000E136E154A162AB7
:1011980016BEE1D7165001E1DAD713C010F014C01B
:1011A80011F012008AEC0BF0186E1250050DF35076
:1011B80000081824186E000E1A6E000E196E1ABE5A
:1011C80006D01A501EE1050E195CD8B0120018504E
:1011D8001924106E000E1A20116E76EC0BF0166EA4
:1011E800176AD8901934D96E1A34DA6E1450D92681
:1011F8001550DA2216C0DEFF17C0DDFF194A1A2A79
:10120800DED71200000EC76E280EC66E000EC56E21
:10121800800E106E960E116E980E126E000E136EE2
:101228001DC021F01EC022F01FC023F020C024F0F2
:10123800020ED8902136223623362436E82EF9D7E6
:1012480021C014F022C015F023C016F024C017F0F6
:1012580060EC08F01004C86E948694881200116E31
:101268001150F00B106E8C500F0B8C6E10508C10B0
:101278008C6E8C96140EE82EFED700D08C86140E39
:10128800E82EFED700D01138F00B116E1150F00B7C
:10129800106E8C500F0B8C6E10508C108C6E8C96C0
:1012A800140EE82EFED700D08C86140EE82EFED73A
:1012B80000D01200000E166E000E156E125013109C
:1012C800D8B41CD0010E146E04D0D8901236133640
:1012D800142A13AEFAD7D890153616361250105C69
:1012E80013501158D8A005D01250105E1350115A3F
:1012F8001580D89013321232142EEDD715C010F085
:1013080016C011F01200B1EC05F0000E356E000E9B
:10131800346EF8EC09F010C036F011C037F036041E
:101328003710D8A40FD0344A352A34C012F035C04B
:1013380013F05A0E146E000E156ED6EC08F0B1ECD0
:1013480005F012000D0E36183710D8A4E2D7000E9B
:101358004B6E12008AEC0BF0050F156E000E116E25
:10136800000E106E15C012F0F7EC0AF0000E176EA2
:10137800000E166E17BE06D0175011E1050E165C4A
:10138800D8B0120015501624106E000E1720116EDA
:10139800FF0E126EF7EC0AF0164A172AEBD7120066
:1013A8008A808B9C4C0E136E000E146E1DEC08F098
:1013B800B1EC05F0F8EC09F010C034F011C035F0CC
:1013C80034503510D8A403D0010E4B6E12003404EB
:1013D8003510D8A402D0030EF8D7030E34183510F0
:1013E800D8A4E0D7050EF1D7000E146E000E136EC8
:1013F80014BE06D0145019E1C80E135CD8B015D02D
:1014080081A20CD081380F0B0F0B126E81B2FED760
:1014180000F000F012C010F0116A1200134A142AEA
:1014280014BEEED7145001E1E7D710681168120016
:101438008B8C800E97EC0BF0ED0E1C6EFF0E1D6E64
:10144800B0EC02F0C00E97EC0BF0A1EC08F00D0E1A
:10145800356EAF0E346EB60EE82EFED7342EFCD79E
:10146800352EFAD700D0000E116E040E106E13EC54
:1014780007F0000E4B6E1200310E136EB20EE82EFE
:10148800FED7132EFCD700D0330E97EC0BF0320E9C
:1014980097EC0BF0280E97EC0BF00F0E97EC0BF077
:1014A800060E97EC0BF0010E97EC0BF0310E136E55
:1014B800B20EE82EFED7132EFCD700D0120019501A
:1014C8001A10D8B418D0010E1B6E04D0D890193653
:1014D8001A361B2A1AAEFAD71950175C1A50185820
:1014E800D8A004D01950175E1A50185AD8901A323A
:1014F80019321B2EF1D717C017F018C018F01200B8
:10150800F29E0D0E356EAF0E346EB60EE82EFED777
:10151800342EFCD7352EFAD700D0B1EC05F0F8EC14
:1015280009F010C036F011C037F00D0E361837101C
:10153800D8A4F5D7000E4B6E1200000E116E000EE7
:10154800106E4DEC06F00B0E176E260E166E5E0E24
:10155800E82EFED7162EFCD7172EFAD7000E116EDE
:10156800000E106EB0EC06F01200000E116E010EA7
:10157800106E4DEC06F00B0E176E260E166E5E0EF4
:10158800E82EFED7162EFCD7172EFAD7000E116EAE
:10159800010E106EB0EC06F0120000EEAEF00E0E6A
:1015A800EE6AE806FDE100EE41F01A0EEE6AE80682
:1015B800FDE15B905B92000EF86E0001CDEF07F045
:1015C800116E81EC0BF0C58681EC0BF0C9CF12F0DF
:1015D80081EC0BF01150D8A402D0C58A01D0C59A6D
:1015E800C588125012001150AA6E10C0A9FF12C06F
:1015F800A8FFA69EA69CA684550EA76EAA0EA76E47
:10160800A682A1A8FED7A198A69412001050120293
:10161800F3CF14F0F4CF15F010501302F350152641
:1016280011501202F350152614C010F015C011F015
:101638001200126E000E116E3A0E126005D02F0EB7
:10164800126402D0010E116E11C010F01030120099
:101658008AEC0BF0FF0AD8A41200000E116E000EDF
:10166800106E000E126EF7EC0AF0120080A405D07E
:10167800000E116E010E106E1200000E116E000E9B
:10168800106E120082A005D0000E116E010E106EB1
:101698001200000E116E000E106E120080A005D010
:1016A800000E116E010E106E1200000E116E000E6B
:1016B800106E120080A605D0000E116E010E106E7D
:1016C8001200000E116E000E106E120080A205D0DE
:1016D800000E116E010E106E1200000E116E000E3B
:1016E800106E12001150AA6E10C0A9FFA69EA69CEB
:1016F800A680A6B0FED7A8501200C7B4FED7C5CFA3
:1017080010F01F0E1016D8B41200F7D7000E116E85
:10171800000E106E76EC0BF01200126E8C841250D4
:1017280033EC09F01200126E8C94125033EC09F06D
:10173800120081EC0BF011C0C9FF120081EC0BF014
:0C174800C584120081EC0BF0C58012007B
:10FEE600003132334134353642373839432A3023EC
:10FEF600440001000A006400E80310270100100016
:10FF06000001001000511403280217253033642025
:10FF16002020202020202020202020202000614E8C
:10FF260025642F6125642F734E25642F53256400A5
:10FF3600457865637574696E672020202025303307
:10FF460064003031323334353637383961626364B0
:10FF5600656600303A4D656E7520202020202020F1
:10FF66002020200046696E69736865642020202081
:10FF760020202020005465726D696E6174656420CE
:10FF8600202020202000457865637574696E672EF1
:10FF96002E2E2020202000313A5072657620303AED
:10FFA6004578697420202000313A537461727420B8
:10FFB600323A4C6F6773202000253032782F253077
:10FFC60031782F25303278200025303278253032AE
:10FFD600782F253032782000253032783A25303295
:10FFE600783A2530327800676F696E6720646562FB
:0AFFF6007567006572726F720000FB
:020000040020DA
:08000000FFFFFFFFFFFFFFFF00
:020000040030CA
:0E000000FF021F1EFF8381FF0FC00FE00F40A5
:00000001FF
