:0400000007EF00F016
:10000800528289ED08F066EF0BF0000E0001816F57
:10001800000E806F000E0001836F000E826FAE0E1F
:10002800136E000E146EE2EC08F020EEB2F0DECF94
:1000380034F0DDCF35F0040E366E353435323432D7
:10004800362EFBD70F0E34140001846F0001856B28
:100058000F0E0001B2150001866F0001876B20EEBC
:10006800B0F0DECF34F0DDCF35F0040E366E353427
:1000780035323432362EFBD70F0E34140001886F18
:100088000001896B0F0E0001B01500018A6F000195
:100098008B6BAEC034F0AFC035F0040E366E35341D
:1000A80035323432362EFBD70F0E341400018C6FE4
:1000B80000018D6B0F0E0001AE1500018E6F00015F
:1000C8008F6B88C010F089C011F0000E136E0A0EF5
:1000D800126E25EC0CF000018A5110240001906F7B
:1000E80000018B5111200001916F84C010F085C070
:1000F80011F0000E136E0A0E126E25EC0CF00001C2
:10010800865110240001926F0001875111200001CF
:10011800936F8CC010F08DC011F0000E136E0A0E94
:10012800126E25EC0CF010C034F011C035F092C0FE
:1001380010F093C011F00E0E136E100E126E25EC17
:100148000CF0105034261150352290C010F091C098
:1001580011F0000E136E3C0E126E25EC0CF01050D0
:1001680034261150352200018E5134240001966F37
:1001780000018F5135200001976F800EC5EC0CF0FF
:10018800650E1C6EFF0E1D6E44EC03F0C00EC5EC30
:100198000CF0430E1C6EFF0E1D6E44EC03F08A80BB
:1001A800040E356ECF0E346E020EE82EFED7342EB6
:1001B800FCD7352EFAD78B8C000E116E040E106EFC
:1001C80029EC08F0000E116E010E106E46EC0BF0D3
:1001D800000E116E020E106E65EC07F0000E116E27
:1001E800000E106EC3EC0BF0000E116E030E106EB5
:1001F800A4EC0BF0F29EA3EC05F096C018F097C0A3
:1002080019F05BEC06F018C0AAF019C0ABF0000EAC
:100218000001A16F010EA06F000E0001A36F010E77
:10022800A26F000E0001A56F010EA46F000E000161
:10023800A76F010EA66F000E00019F6F000E9E6F44
:10024800000E446E000E436E000E426E000E416EAC
:10025800000E486E000E476E000E4A6E000E496E84
:10026800D1D1A3EC05F0800EC5EC0CF0200E1C6E6D
:10027800FF0E1D6EAAC01EF0ABC01FF044EC03F0C9
:1002880068EC0CF010501110D8A405D0000E000135
:10029800A16F000EA06F8CEC0CF010501110D8A4B8
:1002A80005D0000E0001A36F000EA26F80EC0CF0C9
:1002B80010501110D8A405D0000E0001A56F000E33
:1002C800A46F98EC0CF010501110D8A405D0000EB3
:1002D8000001A76F000EA66F0001A0510001A11137
:1002E800D8A422D0000E00019F6F000E9E6F00015F
:1002F800A4050001A511D8A417D0040E356ECF0EA1
:10030800346E020EE82EFED7342EFCD7352EFAD7DF
:10031800E2EC0BF0000E0001816F010E806F000E01
:100328000001A16F010EA06F0001A2510001A311ED
:10033800D8A422D0000E00019F6F000E9E6F00010E
:10034800A6050001A711D8A417D0040E356ECF0E4C
:10035800346E020EE82EFED7342EFCD7352EFAD78F
:10036800FAEC0BF0000E0001836F010E826F000E95
:100378000001A36F010EA26F0001A0050001A111E9
:10038800D8A409D00001A2050001A311D8A403D064
:1003980000019E4B9F2B0001A4510001A511D8A478
:1003A80091D0000E0001AD6F010EAC6F000E000180
:1003B8009F6F000E9E6F000E0001956F000E946FE8
:1003C800000E0001996F000E986F000199BF08D0C8
:1003D800200E0001985D030E00019959D8B014D081
:1003E80074EC0CF010041110D8A403D00001944B45
:1003F800952B040E346E3E0EE82EFED7342EFCD715
:100408000001984B992BE1D7000195BF0DD0000151
:10041800955105E1030E0001945DD8A005D0000EAA
:100428000001AD6F000EAC6FFC0E1C6EFF0E1D6E52
:10043800ACC01EF0ADC01FF044EC03F00001AC519D
:100448000001AD11D8A414D0000E116E020E106E6A
:1004580029EC08F0000E116E020E106E65EC07F024
:10046800000E0001816F000E806F494A4A2A19D098
:100478000001AC050001AD11D8A413D0000E116E17
:10048800020E106EC7EC07F0000E116E020E106E11
:1004980065EC07F0000E0001816F000E806F474A7F
:1004A800482A000E0001A56F010EA46F000E116E00
:1004B800000E106E65EC07F0000E116E010E106E46
:1004C80065EC07F00001A6510001A711D8A462D07D
:1004D800000E00019F6F000E9E6F090E356EE10E33
:1004E800346EB20EE82EFED7342EFCD7352EFAD74E
:1004F80000D0A7EC09F010C0A8F011C0A9F0000EB8
:10050800116E040E106E29EC08F00001A8510001CC
:10051800A911D8B40ED0000E116E030E106E29EC7E
:1005280008F0000E0001836F000E826F434A442AD0
:1005380013D00001A8510001A911D8A40DD0000EB4
:10054800116E030E106EC7EC07F0000E0001836FEA
:10055800000E826F414A422A000E116E030E106E81
:10056800A4EC0BF0000E0001A76F010EA66F98EC2B
:100578000CF010501110D8A40DD00001A8510001A2
:10058800A911D8B404D04306D8A0440603D0410624
:10059800D8A0420696C018F097C019F05BEC06F098
:1005A80018C0AAF019C0ABF000019FBF0ED000011F
:1005B8009F5105E1330E00019E5DD8A006D0020EC2
:1005C8004B6E000E466E010E10D00001ABBF0FD06F
:1005D8000001AB5105E1B50E0001AA5DD8A007D016
:1005E800020E4B6E000E466E000E456E18D0040EBD
:1005F800356ECF0E346E020EE82EFED7342EFCD7A1
:10060800352EFAD70001ABBF08D00001AB5107E186
:10061800B40E0001AA5DD8B002D081B022D68B9C5E
:100628008A9041C09AF043C09BF049C09CF047C0F3
:100638009DF09A0E136E000E146E3AEC0AF0C90E75
:100648001C6EFF0E1D6E9AC01EF01F6A9BC020F024
:10065800216A9CC022F0236A9DC024F0256A44ECDC
:1006680003F0270E356E0D0E346E260EE82EFED7DB
:10067800342EFCD7352EFAD700D0020E4B6E12005E
:100688001E0E2B6E000E2C6E74D1250E3318D8B4A6
:1006980004D03350BFEC0CF06CD1000E326E000E5B
:1006A800316E000E306E03D030841C4A1D2A1CC0E7
:1006B800F6FF1DC0F7FF0800F550300AD8B4F4D78C
:1006C8001CC0F6FF1DC0F7FF0800F5504BEC0CF0FE
:1006D800D8A035D0000E326E000E316E31C010F049
:1006E80032C011F0000E136E0A0E126E25EC0CF0DB
:1006F80010C031F011C032F0D00E266EFF0E276EFA
:100708001CC0F6FF1DC0F7FF0800F550286E296AC7
:1007180026502826275029222850312629503222AF
:100728001C4A1D2A1CC0F6FF1DC0F7FF0800F55023
:100738004BEC0CF0D8A003D0D1D7308E17D01CC00A
:10074800F6FF1DC0F7FF1C4A1D2A0800F5CF33F03D
:100758003350000AD8B41200640AD8B407D00D0A7E
:10076800D8B404D0110AD8B4E8D703D130BE15D014
:100778002BC0D9FF2CC0DAFFDECF2EF0DDCF2FF053
:10078800020E2B26000E2C222FAE44D0030E301260
:100798002E6C2F1ED8B02F2A3DD02BC0D9FF2CC0CD
:1007A800DAFFDECF2EF0DDCF2FF0020E2B26000E63
:1007B8002C2230D0010E336E050E3318D8B432D047
:1007C8003350020DF20EF324F66EFE0EF420F76E8F
:1007D8000900F5502E5C0900F5502F58D8A022D0FA
:1007E800332AEAD7010E336E040E3318D8B41AD060
:1007F8003350020DFC0EF324F66EFE0EF420F76E55
:100808000900F5502E5C0900F5502F58D8A00AD0E1
:10081800332AEAD73050800B000AD8B4CBD7800AE5
:10082800D8B4E0D731503210D8B409D030C026F04F
:10083800030E2616D8B403D03106D8A03206800E8F
:1008480033BE7F0E266E3150335C3250800A2658F4
:10085800D8B007D03350315E000E33BEFF0E325A87
:1008680004D0000E326E000E316E30A414D030C0A9
:1008780026F0030E2616D8B403D02D0EBFEC0CF0CC
:1008880031503210D8B41ED0300EBFEC0CF0310607
:10089800D8A03206F5D731503210D8B40AD0200E7D
:1008A800BFEC0CF03106D8A0320631503210D8A473
:1008B800F6D730C026F0030E2616D8B403D02D0E76
:1008C800BFEC0CF033C02DF050D02D50020DF20EBD
:1008D800F324F66EFE0EF420F76E0900F5CF12F041
:1008E8000A00F5CF13F02EC010F02FC011F091ECD4
:1008F8000AF010C017F011C018F0000E1A6E0A0E98
:10090800196E25EC0BF01750300F336E2BD02EC01C
:1009180010F02FC011F02D50020DFC0EF324F66ECE
:10092800FE0EF420F76E0900F5CF12F00A00F5CF9D
:1009380013F091EC0AF010500F0B2A6E2A50010D9B
:10094800320EF324F66EFF0EF420F76E0800F5CF92
:1009580033F008D03050800B000AD8B4B6D7800ADC
:10096800D8B4D5D73350BFEC0CF02D062D28D8A419
:10097800F1D71CC0F6FF1DC0F7FF1C4A1D2A08004E
:10098800F5CF33F03350D8B412007FD6F00ED36EC3
:10099800000E926EF20E936E000E946E000E956E1F
:1009A800000E966E000E896E000E8A6E000E8B6E1B
:1009B800000E8C6E000E8D6E000EC26E000EC16EA3
:1009C80002EC0BF0100E1D6E270E1E6E000E1F6E31
:1009D800000E206E0DEC0AF0F29E550E896E550E33
:1009E8008A6E550E8B6E8C808C928D808D92000E47
:1009F800366E000E356E000E3F6E000E3E6E95D0C0
:100A0800D4EC0CF0000E126ED00E116ECBEC0CF084
:100A1800000E126E000E116ECBEC0CF0D0EC0CF048
:100A2800D4EC0CF0000E126ED10E116ECBEC0CF063
:100A3800000E406E050E406401D00ED04050010DEE
:100A4800370EF324D96E000EF420DA6E010E12EC84
:100A58000CF0DF6E402AEED7000E12EC0CF03D6E63
:100A6800D0EC0CF0800EC5EC0CF0D80E1C6EFF0E0E
:100A78001D6E3DC01EF01F6A3CC020F0216A3BC0BD
:100A880022F0236A44EC03F0E70E1C6EFF0E1D6E85
:100A980039C01EF01F6A38C020F0216A37C022F022
:100AA800236A44EC03F0C00EC5EC0CF0450E1C6E36
:100AB800FF0E1D6E44EC03F0800EC5EC0CF0C00E6A
:100AC800C5EC0CF0891E8A1E8B1E8CB003D0346ACC
:100AD800342A01D0346A8C503418FE0B34188C6ECA
:100AE8008CB203D0346A342A01D0346A34468C502C
:100AF8003418FD0B34188C6E8DB003D0346A342A48
:100B080001D0346A8D503418FE0B34188D6E8DB2B6
:100B180003D0346A342A01D0346A34468D503418EC
:100B2800FD0B34188D6E3E4A3F2A3FBE69D73F50B1
:100B380005E10A0E3E5CD8B0120062D71200800EA2
:100B4800C5EC0CF09FD0A90E1C6EFF0E1D6EC8C020
:100B58001EF0C9C01FF0C6C020F0C7C021F0C4C035
:100B680022F0C5C023F044EC03F0E70E1C6EFF0E24
:100B78001D6EC0C01EF0C1C01FF0BEC020F0BFC0B7
:100B880021F0BCC022F0BDC023F044EC03F0C00E3D
:100B9800C5EC0CF0870E1C6EFF0E1D6E44EC03F0C6
:100BA8007FD00B0E1C6EFF0E1D6E4CC01EF01F6A10
:100BB8004DC020F0216A4EC022F0236A4FC024F0B5
:100BC800256A44EC03F0C00EC5EC0CF0760E1C6EE2
:100BD800FF0E1D6E44EC03F063D0540E1C6EFF0E26
:100BE8001D6E44EC03F0C00EC5EC0CF00B0E1C6E31
:100BF800FF0E1D6E41C01EF042C01FF043C020F022
:100C080044C021F049C022F04AC023F047C024F074
:100C180048C025F044EC03F043D00B0E1C6EFF0EC9
:100C28001D6E41C01EF042C01FF043C020F044C0FA
:100C380021F049C022F04AC023F047C024F048C040
:100C480025F044EC03F0C00EC5EC0CF0450446104A
:100C5800D8A407D0B90E1C6EFF0E1D6E44EC03F02D
:100C680006D0980E1C6EFF0E1D6E44EC03F0C00EED
:100C7800C5EC0CF015D0F60E1C6EFF0E1D6E44EC84
:100C880003F00ED04B50000AD8B45DD7010AD8B48F
:100C9800A4D7030AD8B4C1D7010AD8B482D7EBD7EE
:100CA800800EC5EC0CF0C00EC5EC0CF01200BC0EAA
:100CB800136E000E146EE2EC08F020EEC0F0DECFEA
:100CC8001AF0DDCF1BF0040E1C6E1B341B321A32D7
:100CD8001C2EFBD70F0E1A141D6E1E6A0F0E000174
:100CE800C0151F6E206A20EEBEF0DECF1AF0DDCFF1
:100CF8001BF0040E1C6E1B341B321A321C2EFBD741
:100D08000F0E1A14216E226A0F0E0001BE15236EF3
:100D1800246ABCC01AF0BDC01BF0040E1C6E1B3444
:100D28001B321A321C2EFBD70F0E1A14256E266A98
:100D38000F0E0001BC15276E286A21C010F022C0D2
:100D480011F0000E136E0A0E126E25EC0CF02350F3
:100D580010242B6E245011202C6E1DC010F01EC0C4
:100D680011F0000E136E0A0E126E25EC0CF01F50D7
:100D780010242D6E205011202E6E25C010F026C094
:100D880011F0000E136E0A0E126E25EC0CF010C056
:100D98001AF011C01BF02DC010F02EC011F00E0E6D
:100DA800136E100E126E25EC0CF010501A2611500E
:100DB8001B222BC010F02CC011F0000E136E3C0E3D
:100DC800126E25EC0CF010501A2611501B222750D9
:100DD8001A24296E28501B202A6E18C01AF019C030
:100DE8001BF01A1E1B1E1A4A1B2A29501A24186E99
:100DF8002A501B20196E1200CAEC04F0F00ED36EB4
:100E08000F0E926EF20E936E1B0E946E000E956E80
:100E1800000E966E000E896E000E8A6E000E8B6EA6
:100E2800000E8C6E000E8D6E000EC26E0F0EC16E1F
:100E380002EC0BF0100E1D6E270E1E6E000E1F6EBC
:100E4800000E206E0DEC0AF05AEC0CF0F086070E3E
:100E5800B46EF29E800EC5EC0CF0430E1C6EFF0EB5
:100E68001D6E44EC03F0C00EC5EC0CF0430E1C6E76
:100E7800FF0E1D6E44EC03F0C00EC5EC0CF0000E26
:100E88004B6E0ED0BAEC0AF00BD009EC00F008D08B
:100E980085EC0BF005D025EC09F002D0D8EC0CF06D
:100EA8004B50000AD8B4EED7010AD8B4EED7030ADB
:100EB800D8B4EED7010AD8B4EED7060AD8B4EED71C
:100EC800EFD7000E156E000E146E56D0898820D00C
:100ED800898A1ED08D801CD08D821AD08A8418D021
:100EE80010C012F011C013F01350000AD8A410D08B
:100EF8001250000AD8B4EAD7010AD8B4E9D7030ACD
:100F0800D8B4E8D7010AD8B4E7D7070AD8B4E6D7DF
:100F1800050E126EDE0EE82EFED7122EFCD70AD072
:100F2800899820D0899A1ED08D901CD08D921AD085
:100F38008A9418D010C012F011C013F01350000A90
:100F4800D8A410D01250000AD8B4EAD7010AD8B4ED
:100F5800E9D7030AD8B4E8D7010AD8B4E7D7070A0B
:100F6800D8B4E6D73D0E126E0F0EE82EFED7122E1D
:100F7800FCD700F0144A152A5050145C51501558EB
:100F8800D8B01200ADD7000E156E000E146E56D0F4
:100F9800898820D0898A1ED08D801CD08D821AD055
:100FA8008A8418D010C012F011C013F01350000A30
:100FB800D8A410D01250000AD8B4EAD7010AD8B47D
:100FC800E9D7030AD8B4E8D7010AD8B4E7D7070A9B
:100FD800D8B4E6D7080E126ECA0EE82EFED7122E27
:100FE800FCD70AD0899820D0899A1ED08D901CD021
:100FF8008D921AD08A9418D010C012F011C013F034
:101008001350000AD8A410D01250000AD8B4EAD756
:10101800010AD8B4E9D7030AD8B4E8D7010AD8B482
:10102800E7D7070AD8B4E6D73A0E126E230EE82E91
:10103800FED7122EFCD700F0144A152A5050145C23
:1010480051501558D8B01200ADD7000E156E000ECD
:10105800146E54D0898820D0898A1ED08D801CD0E7
:101068008D821AD08A8418D010C012F011C013F0E3
:101078001350000AD8A410D01250000AD8B4EAD7E6
:10108800010AD8B4E9D7030AD8B4E8D7010AD8B412
:10109800E7D7070AD8B4E6D7D60E00D000D0E82E96
:1010A800FCD700D00AD0899820D0899A1ED08D907C
:1010B8001CD08D921AD08A9418D010C012F011C08A
:1010C80013F01350000AD8A410D01250000AD8B454
:1010D800EAD7010AD8B4E9D7030AD8B4E8D7010A8D
:1010E800D8B4E7D7070AD8B4E6D73F0E126EFC0E7D
:1010F800E82EFED7122EFCD7144A152A5050145C3D
:1011080051501558D8B01200AFD70600FACF01F0E9
:10111800FBCF02F0E9CF03F0EACF04F0E1CF05F00E
:10112800E2CF06F0D9CF07F0DACF08F0F3CF09F015
:10113800F4CF0AF0F6CF0BF0F7CF0CF0F8CF0DF0A4
:10114800F5CF0EF0F0A01CD081380F0B0F0B0F6EEF
:101158000D0E0F18D8A4F8D7000E896E000E8A6EEF
:10116800000E8B6E000E8C6E000E8D6E8B9C8A901E
:10117800020E4B6E000E466E000E456EF29EF0900B
:101188000EC0F5FF0DC0F8FF0CC0F7FF0BC0F6FF4F
:101198000AC0F4FF09C0F3FF08C0DAFF07C0D9FF8F
:1011A80006C0E2FF05C0E1FF04C0EAFF03C0E9FF93
:1011B80002C0FBFF01C0FAFF52921100D4EC0CF000
:1011C800000E126ED00E116ECBEC0CF0000E126EEB
:1011D800000E116ECBEC0CF0D0EC0CF0D4EC0CF053
:1011E800000E126ED10E116ECBEC0CF0000E176EC5
:1011F800050E176401D013D0010E12EC0CF0156E19
:10120800166A1750020DF3501324D96EF4501420A7
:10121800DA6E15C0DEFF16C0DDFF172AE9D7000E0B
:1012280012EC0CF0156E166A20EE0CF01350D9264D
:101238001450DA2215C0DEFF16C0DDFFD0EC0CF02A
:101248001200000E376E000E366E36C012F037C030
:1012580013F04C0E146E000E156EE0EC09F0A3ECC2
:1012680005F0DEEC0AF010C034F011C035F034504F
:101278003510D8A41FD0364A372A36C012F037C0E6
:1012880013F04C0E146E000E156EE0EC09F04C28AD
:10129800D8A40DD03606D8A0370636C012F037C00D
:1012A80013F04C0E146E000E156EE0EC09F0A3EC72
:1012B80005F0D7D70D0E34183510D8A4D2D7000EA4
:1012C8004B6E1200000E186E000E196E000E1A6E8C
:1012D800000E1B6E1450151016101710D8B42AD013
:1012E800010E1C6E06D0D8901436153616361736F1
:1012F8001C2A17AEF8D7D890183619361A361B3666
:101308001450105C15501158165012581750135895
:10131800D8A009D01450105E1550115A1650125A00
:101328001750135A1880D8901732163215321432C3
:101338001C2EE1D718C010F019C011F01AC012F015
:101348001BC013F0120017681868000E166E000E06
:10135800156E1DD08A84060E126EA50EE82EFED7D5
:10136800122EFCD700F08A943C0E126E480EE82E1E
:10137800FED7122EFCD782A204D0000E186E010EE2
:1013880003D0000E186E000E176E154A162A320E7C
:101398005024126E000E5120136E1250155C165018
:1013A800800A146E1350800A1458D8A0D3D717C0D7
:1013B80010F018C011F01200B8EC0CF0166E1244C0
:1013C800E846FC0B00081624166E1650D8A402D066
:1013D800040E166E000E186E000E176E18BE06D09C
:1013E800185016E1040E175CD8B0120017501424D8
:1013F800D96E18501520DA6E16501724106E000E8C
:101408001820116EA4EC0CF0DF6E174A182AE6D7E4
:101418001200000EC76E280EC66E000EC56E800E36
:10142800106E960E116E980E126E000E136E1DC081
:1014380021F01EC022F01FC023F020C024F0020EAD
:10144800D8902136223623362436E82EF9D721C003
:1014580014F022C015F023C016F024C017F066EC73
:1014680009F01004C86E948694881200B8EC0CF049
:10147800040F156E000E116E000E106E15C012F0DE
:1014880038EC0CF0000E176E000E166E17BE06D064
:10149800175017E1040E165CD8B012001550162428
:1014A800106E000E1720116E16501324D96E1750A7
:1014B8001420DA6EDF50126E38EC0CF0164A172A38
:1014C800E5D71200116E1150F00B106E8C500F0BF7
:1014D8008C6E10508C108C6E8C96140EE82EFED7E5
:1014E80000D08C86140EE82EFED700D01138F00BF1
:1014F800116E1150F00B106E8C500F0B8C6E10503B
:101508008C108C6E8C96140EE82EFED700D08C862C
:10151800140EE82EFED700D01200000E166E000E34
:10152800156E12501310D8B41CD0010E146E04D0CE
:10153800D89012361336142A13AEFAD7D890153627
:1015480016361250105C13501158D8A005D01250FE
:10155800105E1350115A1580D89013321232142E7F
:10156800EDD715C010F016C011F012008A908B9CB0
:10157800BC0E136E000E146EE2EC08F0A3EC05F03E
:10158800DEEC0AF010C034F011C035F034503510DC
:10159800D8A403D0010E4B6E120034043510D8A421
:1015A80002D0030EF8D7030E34183510D8A4E0D7AC
:1015B800050EF1D7000E146E000E136E14BE06D081
:1015C800145019E1C80E135CD8B015D081A20CD004
:1015D80081380F0B0F0B126E81B2FED700F000F0AE
:1015E80012C010F0116A1200134A142A14BEEED762
:1015F800145001E1E7D7106811681200310E136E1C
:10160800B20EE82EFED7132EFCD700D0330EC5EC51
:101618000CF0320EC5EC0CF0280EC5EC0CF00F0ED9
:10162800C5EC0CF0060EC5EC0CF0010EC5EC0CF088
:10163800310E136EB20EE82EFED7132EFCD700D053
:10164800120019501A10D8B418D0010E1B6E04D00D
:10165800D89019361A361B2A1AAEFAD71950175CC1
:101668001A501858D8A004D01950175E1A50185A92
:10167800D8901A3219321B2EF1D717C017F018C09C
:1016880018F01200000E146E000E136E14D0898A22
:10169800060E126E660EE82EFED7122EFCD700D06C
:1016A800899A3C0E126E860EE82EFED7122EFCD7B3
:1016B80000F0134A142A5050135C51501458D8B0F3
:1016C8001200E5D7B60EF66E190EF76E000EF86E1C
:1016D8000900F5CF50F00900F5CF51F000EEAEF05B
:1016E8001C0EEE6AE806FDE100EE41F00F0EEE6A10
:1016F800E806FDE152905292000EF86E000100EFEC
:1017080007F0F29E0D0E356EAF0E346EB60EE82E53
:10171800FED7342EFCD7352EFAD700D0A3EC05F02F
:101728008A908B9CDEEC0AF010C036F011C037F0BE
:101738000D0E36183710D8A4F5D7000E4B6E1200D0
:10174800000E146E000E136E13D08D82060E126EEC
:10175800070EE82EFED7122EFCD78D923C0E126E85
:10176800E60EE82EFED7122EFCD700F0134A142AF4
:101778005050135C51501458D8B01200E6D7000EE0
:10178800146E000E136E13D08988060E126E070EA3
:10179800E82EFED7122EFCD789982F0E126EE90E6E
:1017A800E82EFED7122EFCD700D0134A142A505028
:1017B800135C51501458D8B01200E6D7000E116EC1
:1017C800000E106EC7EC07F00B0E176E260E166E85
:1017D8005E0EE82EFED7162EFCD7172EFAD7000E6F
:1017E800116E000E106EC3EC0BF01200000E116E9D
:1017F800010E106EC7EC07F00B0E176E260E166E54
:101808005E0EE82EFED7162EFCD7172EFAD7000E3E
:10181800116E010E106E46EC0BF01200116EAFEC5B
:101828000CF0C586AFEC0CF0C9CF12F0AFEC0CF0A1
:101838001150D8A402D0C58A01D0C59AC5881250C3
:10184800120010501202F3CF14F0F4CF15F010501C
:101858001302F350152611501202F350152614C026
:1018680010F015C011F012001150AA6E10C0A9FF97
:1018780012C0A8FFA69EA69CA684550EA76EAA0E07
:10188800A76EA682A1A8FED7A198A6941200126EF0
:10189800000E116E3A0E126005D02F0E126402D09F
:1018A800010E116E11C010F010301200B8EC0CF0DF
:1018B800FF0AD8A41200000E116E000E106E000E62
:1018C800126E38EC0CF0120080A405D0000E116ED8
:1018D800010E106E1200000E116E000E106E120036
:1018E80082A005D0000E116E010E106E1200000EBF
:1018F800116E000E106E120080A005D0000E116E41
:10190800010E106E1200000E116E000E106E120005
:1019180080A605D0000E116E010E106E1200000E8A
:10192800116E000E106E120080A205D0000E116E0E
:10193800010E106E1200000E116E000E106E1200D5
:101948001150AA6E10C0A9FFA69EA69CA680A6B09C
:10195800FED7A8501200C7B4FED7C5CF10F01F0E8F
:101968001016D8B41200F7D7000E116E000E106EC4
:10197800A4EC0CF01200126E8C84125066EC0AF083
:101988001200126E8C94125066EC0AF01200AFEC42
:101998000CF011C0C9FF1200AFEC0CF0C5841200A6
:1019A800AFEC0CF0C5801200000E4B6E12001E004A
:10FEE000003132334134353642373839432A3023F2
:10FEF000440001000A006400E8031027010010001C
:10FF00000001001000010103120417614E25642F47
:10FF10006125642F734E25642F5325642020200013
:10FF2000457865637574696E67202020202530331D
:10FF300064003031323334353637383961626364C6
:10FF40006566002020202020202020202020202046
:10FF500020202000457865637574696E672E2E2E0B
:10FF60002020202000696E697469616C697A696E6D
:10FF7000672020202000313A5072657620303A45C3
:10FF800078697420202000313A53746172742032F1
:10FF90003A4C6F677320200053746F707065642053
:10FFA0002020303A486F6D6500253032782F25309B
:10FFB00031782F25303278200046696E6973686584
:10FFC0006420303A486F6D650025642F25642F2525
:10FFD000642F2564202020002530327825303278A7
:10FFE0002F253032782000253032783A253032788B
:10FFF0003A25303278006572726F72002564000015
:020000040020DA
:08000000FFFFFFFFFFFFFFFF00
:020000040030CA
:0E000000FF021F1EFF8381FF0FC00FE00F40A5
:00000001FF
